:020000040000fa
:080000000002040000000000f2
:020000040000fa
:04000800820600006c
:020000040000fa
:04000c008206000068
:020000040000fa
:040010008206000064
:020000040000fa
:040014008206000060
:020000040000fa
:04001800820600005c
:020000040000fa
:04001c008206000058
:020000040000fa
:040020008206000054
:020000040000fa
:040024008206000050
:020000040000fa
:04002800700600005e
:020000040000fa
:04002c008206000048
:020000040000fa
:040030008206000044
:020000040000fa
:040034008206000040
:020000040000fa
:04003800820600003c
:020000040000fa
:04003c008206000038
:020000040000fa
:040040008206000034
:020000040000fa
:04004400f6050000bd
:020000040000fa
:04004800820600002c
:020000040000fa
:04004c008206000028
:020000040000fa
:040050008206000024
:020000040000fa
:04005400d4020000d2
:020000040000fa
:04005800820600001c
:020000040000fa
:04005c008206000018
:020000040000fa
:040060008206000014
:020000040000fa
:040064008206000010
:020000040000fa
:04006800820600000c
:020000040000fa
:04006c008206000008
:020000040000fa
:040070008206000004
:020000040000fa
:040074008206000000
:020000040000fa
:0400780082060000fc
:020000040000fa
:04007c0082060000f8
:020000040000fa
:0400800082060000f4
:020000040000fa
:0400840082060000f0
:020000040000fa
:0400880082060000ec
:020000040000fa
:04008c0082060000e8
:020000040000fa
:0400900082060000e4
:020000040000fa
:0400940082060000e0
:020000040000fa
:0400980082060000dc
:020000040000fa
:04009c0082060000d8
:020000040000fa
:0400a000ca0500008d
:020000040000fa
:0400a40082060000d0
:020000040000fa
:0400a80082060000cc
:020000040000fa
:0400ac0082060000c8
:020000040000fa
:0400b00082060000c4
:020000040000fa
:0400b40082060000c0
:020000040000fa
:0400b80082060000bc
:020000040000fa
:0400bc0082060000b8
:020000040000fa
:0400c00082060000b4
:020000040000fa
:0400c40082060000b0
:020000040000fa
:0400c80082060000ac
:020000040000fa
:0400cc0082060000a8
:020000040000fa
:0400d00082060000a4
:020000040000fa
:0400d40082060000a0
:020000040000fa
:0400d800820600009c
:020000040000fa
:0400dc008206000098
:020000040000fa
:0400e0008206000094
:020000040000fa
:0400e4008206000090
:020000040000fa
:0400e800820600008c
:020000040000fa
:0400ec008206000088
:020000040000fa
:0400f0008206000084
:020000040000fa
:0400f4008206000080
:020000040000fa
:0400f800820600007c
:020000040000fa
:0400fc008206000078
:020000040000fa
:040100008206000073
:020000040000fa
:04010400820600006f
:020000040000fa
:04010800820600006b
:020000040000fa
:04010c008206000067
:020000040000fa
:040110008206000063
:020000040000fa
:04011400820600005f
:020000040000fa
:04011800820600005b
:020000040000fa
:04011c008206000057
:020000040000fa
:040120005c06000079
:020000040000fa
:04012400820600004f
:020000040000fa
:04012800820600004b
:020000040000fa
:04012c008206000047
:020000040000fa
:040130008206000043
:020000040000fa
:04013400820600003f
:020000040000fa
:04013800820600003b
:020000040000fa
:04013c008206000037
:020000040000fa
:040140008206000033
:020000040000fa
:04014400820600002f
:020000040000fa
:04014800820600002b
:020000040000fa
:04014c008206000027
:020000040000fa
:040150008206000023
:020000040000fa
:04015400820600001f
:020000040000fa
:04015800820600001b
:020000040000fa
:04015c008206000017
:020000040000fa
:040160008206000013
:020000040000fa
:04016400820600000f
:020000040000fa
:04020800820600006a
:020000040000fa
:04020c008206000066
:020000040000fa
:040210008206000062
:020000040000fa
:04021400820600005e
:020000040000fa
:04021800820600005a
:020000040000fa
:04021c008206000056
:020000040000fa
:040220008206000052
:020000040000fa
:04022400820600004e
:020000040000fa
:04022800820600004a
:020000040000fa
:04022c008206000046
:020000040000fa
:040230008206000042
:020000040000fa
:04023400820600003e
:020000040000fa
:04023800820600003a
:020000040000fa
:04023c008206000036
:020000040000fa
:040240008206000032
:020000040000fa
:04024400820600002e
:020000040000fa
:04024800820600002a
:020000040000fa
:04024c008206000026
:020000040000fa
:040250008206000022
:020000040000fa
:04025400820600001e
:020000040000fa
:04025800820600001a
:020000040000fa
:04025c008206000016
:020000040000fa
:040260008206000012
:020000040000fa
:04026400820600000e
:020000040000fa
:04026800820600000a
:020000040000fa
:04026c008206000006
:020000040000fa
:040270008206000002
:020000040000fa
:0402740082060000fe
:020000040000fa
:0402780082060000fa
:020000040000fa
:04027c0082060000f6
:020000040000fa
:0402800082060000f2
:020000040000fa
:0402840082060000ee
:020000040000fa
:0402880082060000ea
:020000040000fa
:04028c0082060000e6
:020000040000fa
:0402900082060000e2
:020000040000fa
:0402940082060000de
:020000040000fa
:0402980082060000da
:020000040000fa
:04029c0082060000d6
:020000040000fa
:0402a00082060000d2
:020000040000fa
:0402a40082060000ce
:020000040000fa
:0402a80082060000ca
:020000040000fa
:0402ac0082060000c6
:020000040000fa
:0402b00082060000c2
:020000040000fa
:0402b40082060000be
:020000040000fa
:0402b80082060000ba
:020000040000fa
:0402bc0082060000b6
:020000040000fa
:0402c00082060000b2
:020000040000fa
:0402c40082060000ae
:020000040000fa
:0402c80082060000aa
:020000040000fa
:0402cc0082060000a6
:020000040000fa
:0402d00082060000a2
:020000040000fa
:0402d400820600009e
:020000040000fa
:0402d800820600009a
:020000040000fa
:0402dc008206000096
:020000040000fa
:0402e0008206000092
:020000040000fa
:0402e400820600008e
:020000040000fa
:0402e800820600008a
:020000040000fa
:0402ec008206000086
:020000040000fa
:0402f0008206000082
:020000040000fa
:0402f400820600007e
:020000040000fa
:0402f800820600007a
:020000040000fa
:0402fc008206000076
:020000040000fa
:040300008206000071
:020000040000fa
:04030400820600006d
:020000040000fa
:040308008206000069
:020000040000fa
:04030c008206000065
:020000040000fa
:040310008206000061
:020000040000fa
:04031400820600005d
:020000040000fa
:040318008206000059
:020000040000fa
:04031c008206000055
:020000040000fa
:040320008206000051
:020000040000fa
:04032400820600004d
:020000040000fa
:040328008206000049
:020000040000fa
:04032c008206000045
:020000040000fa
:040330008206000041
:020000040000fa
:04033400820600003d
:020000040000fa
:040338008206000039
:020000040000fa
:04033c008206000035
:020000040000fa
:040340008206000031
:020000040000fa
:04034400820600002d
:020000040000fa
:040348008206000029
:020000040000fa
:04034c008206000025
:020000040000fa
:040350008206000021
:020000040000fa
:04035400820600001d
:020000040000fa
:040358008206000019
:020000040000fa
:04035c008206000015
:020000040000fa
:040360008206000011
:020000040000fa
:04036400820600000d
:020000040000fa
:10040000efa020000e7f24000e01880000000000f5
:10041000000020000000e000020032000001200087
:100420002002880014000700ad0207000000e00071
:1004300003003a00e09a2300010020000200370088
:100440000000200001002000810f70000100320038
:1004500014000700000020000000e000020032004d
:100460000000020000000000241a0200000000004a
:100470000040da000000fe004440a90040052000d2
:100480000000e0000300320000002000a00188000e
:100490004440a800000006008a1f78008b1f7800e7
:1004a0000000060091018800800478000000eb0045
:1004b0001a003700e284440032a0b4009905ba0063
:1004c000e284440032a0b4009906ba00e2844400f9
:1004d00032a0b4000006eb00476fde00fd07b2005b
:1004e000636ce10003003a00ebff07000000eb0043
:1004f0000a003700606ce10004003a00005deb0088
:100500008b05e900fdff3e00040037006168e10053
:10051000010032000086eb000b00070019c7ba008b
:100520001905ba000e04e00003003a000a00e000da
:10053000e0ff3a0000000600fe07b2009e018800be
:100540008a047800f5ff3700395dba008b05e900b1
:100550000c003200295dba008b05e900080032006a
:100560000c00e00003003a00e284440032a0b40032
:10057000f5ff370019ddba008b05e900faff3a00f4
:100580008904e800e184440032a0b40000000600c1
:100590006e0b0400000000002a160400000000009a
:1005a0000000040000000000809fbe00829fbe008b
:1005b000849fbe003400f80000002000a0018800e5
:1005c0000200fa008560a90010118000640060003c
:1005d0000000e00014003a0010118000620060008a
:1005e0000000e00010003a000a00370030118000df
:1005f000104798000cc8bf000080fb00419320000a
:100600001e419000827078000cc8bf000040e800d6
:100610000ce8b70010118000610060000000e000ed
:10062000f2ff3a00010037002222a9000cc8bf00e7
:100630000080fb000000e900419320006140780049
:10064000ea4f50004d013a004093200010407800de
:10065000e24f500048013a005093200010407800cb
:100660000080fb006101b90000fd2f00f1ff2f00a9
:100670000200400083804800a20220000300200006
:10068000820f5000838f58003b013e000060010044
:10069000390137003801370037013700360137009c
:1006a000350137003401370033013700320137009c
:1006b00031013700300137002f0137002e0137009c
:1006c0002d0137002c0137002b0137002a0137009c
:1006d0002901370019003700270137001a003700b9
:1006e00025013700090137000d01370022013700cd
:1006f00021013700200137001f0137001e0137009c
:100700001d0137001c0137001b0137001a0137009b
:1007100008013700180137000b0137000f013700bf
:100720001501370014013700130137000f0137009e
:1007300011013700100137000f01370010c0b3005e
:1007400012e8b7000c0137002000200000408800ac
:1007500060932000104078000080fb0021052000fd
:10076000810f50009300320021052000810f5000be
:1007700011003c0051042000810f5000b6003200ef
:1007800051042000810f500004003c00410420006f
:10079000810f500040003200f70037006104200054
:1007a000810f50004600320001052000810f5000eb
:1007b00010003200f000370041052000810f50008a
:1007c0005300320041052000810f500046003500e3
:1007d00081052000810f5000c8003200a1052000d3
:1007e000810f5000e3003a00200020000043880001
:1007f000c500370030002000004388000e28ef00bd
:100800001028ef000040eb00004f78001b0037007d
:1008100070408000814080006a09b90002017800c0
:100820006002b9008401780003014100a3002000a8
:100830000300b80001014100820078007040880088
:10084000814088001e80fb0063004000419320002f
:10085000614078000080fb000003b1006101b90035
:10086000704080008140800002004000838048008a
:1008700070408800814088001e4fe8009e80fb0089
:100880000cc8bf000080fb0064005000808f500047
:10089000dfff35009c003700400020000043880047
:1008a00070932000104078000080fb000003b1002e
:1008b000cf80de00704088008140880092003700c1
:1008c0005000200000438800709320001040780002
:1008d0000080fb000003b100cf80de007040880084
:1008e0008140880088003700100020000043880005
:1008f00070932000104078000080fb000003b100de
:10090000cf80de0070408800814088007e00370084
:1009100060002000004388000e28ef001028ef0040
:100920000040eb00004f78001b0037007040800053
:10093000814080006a09b900020178006002b900b4
:100940008401780003014100a30020000300b800e7
:1009500001014100820078007040880081408800d9
:100960001e80fb006300400041932000614078003e
:100970000080fb000003b1006101b90070408000fd
:100980008140800002004000838048007040880061
:10099000814088001e4fe8009e80fb000cc8bf000d
:1009a0000080fb0064005000808f5000dfff3500a6
:1009b0005500370070002000004388000e28ef002b
:1009c0001028ef000040eb00004f78001b003700bc
:1009d00070408000814080006a09b90002017800ff
:1009e0006002b9008401780003014100a3002000e7
:1009f0000300b800010141008200780070408800c7
:100a0000814088001e80fb0063004000419320006d
:100a1000614078000080fb000003b1006101b90073
:100a200070408000814080000200400083804800c8
:100a300070408800814088001e4fe8009e80fb00c7
:100a40000cc8bf000080fb0064005000808f500085
:100a5000dfff35002c0037008000200000438800b5
:100a60000e28ef001028ef000040eb00004f780048
:100a70001b00370070408000814080006a09b90087
:100a8000020178006002b90084017800030141008e
:100a9000a30020000300b80001014100820078009b
:100aa00070408800814088001e80fb006300400089
:100ab00041932000614078000080fb000003b100fa
:100ac0006101b90070408000814080000200400058
:100ad0008380480070408800814088001e4fe800f5
:100ae0009e80fb000cc8bf000080fb00640050002b
:100af000808f5000dfff350003003700900020009a
:100b000000438800000000001b0037003000200078
:100b100000408800100020001040880016003700b8
:100b200010c0b30012e8b700400020000040880069
:100b30001100370030002000004088002000200015
:100b4000104088000c00370010c0b30012e8b70056
:100b5000100020000040880007003700300020000f
:100b6000004088000228ef00030037000028ef0053
:100b700001003700000000000c68ef000080fa0060
:100b80003400f9004f02be004f01be004f00be000e
:100b900000400600809fbe003400f80000002000e6
:100ba000a00188000200fa0087c0a900901180000f
:100bb000640060000000e00007003a00901180002f
:100bc000620060000000e00003003a00b111800004
:100bd000010f7800010037003222a9000080fa00de
:100be0003400f9004f00be00004006003600f80057
:100bf000809fbe00829fbe00849fbe00869fbe0075
:100c00003400f80000002000a00188000000fa0075
:100c100084e0a90040408000e80f500004003e003e
:100c2000404080000000e800404088000e0037008f
:100c30000828ef0000408000e20e070020408000fe
:100c4000e30f500008003a0020c0b3000e1907005f
:100c5000f018200001002000da1a07005d170700d5
:100c600010c0b3000819070006c8bf000004e00068
:100c70000900320020c0b30003190700f01820005b
:100c800001002000cf1a07004080200077120700e3
:100c900010c0b300fc1807000080fa003400f9000f
:100ca0004f03be004f02be004f01be004f00be000a
:100cb0003600f900004006003400f800881f780074
:100cc00008002000a80188004f0478000000fa0006
:100cd0008bc0a9000080fa003400f9000040060033
:100ce0003400f800881f780008002000a801880060
:100cf0004f0478000000fa000080fa003400f90088
:100d0000004006000040da000000fe000a00fa0081
:100d100011002000b1bf9f00c0bf9f006a80570034
:100d2000810807004fb897000080fa000000060015
:100d30000a00fa00e20f500034003e0050508000dc
:100d4000e10f500003003200e20f500011003a00a2
:100d50000c003700032220000300e00001003a00ed
:100d60000040da002002e200020035002822ef00f5
:100d700021e2a8002342ab000d003a002342a80064
:100d80000b003700032320000300e00001003a00bd
:100d90000040da003002e200020035003822ef00a5
:100da00031e2a8003342ab0001003a003342a80010
:100db000820178000b0037003102fb00e10f500088
:100dc00004003a002322ab00feff3a002411880001
:100dd000030037003322ab00feff3a00a411880065
:100de0008301e9000300e000f3ff3a00e10f500047
:100df00003003a002302ab00feff32000b00370075
:100e00003302ab00feff3200080037003300200041
:100e1000b3bf9f00c0bf9f00d1bf9f00e2bf9f0034
:100e20006a805700420807006fb9970002007800f7
:100e30000080fa00000006000a00fa0051002000bd
:100e4000b1bf9f00c0bf9f006a8057003a080700eb
:100e50005fb897000080fa0000000600889fbe007f
:100e600080047800605080000000e00004003a0038
:100e70000e0007000084eb000000e00008003500d1
:100e8000685080000900e0000500320009004400bd
:100e9000060007000000e00001003d000084eb00b8
:100ea000080078004f04be000000060080007800b3
:100eb0000100e00003003a000000200060508800bc
:100ec000000005000080eb0002002000828f50002f
:100ed00002003e00615088000000eb0000000600a8
:100ee0000000050003f0a200889fbe008a9fbe009c
:100ef0008c1f78000b010700120133006450e100e1
:100f00004f0032006420e1005200320003826c0086
:100f100007003b000905d0000306d000820f5400f3
:100f20000c065d00020039000200320089017800e1
:100f3000030678008582550004003d000003fd0093
:100f40008103fd008502ea008b854200840f720058
:100f500002003b0060001000e08018006011b80043
:100f60000005eb007a28e1000a003900060078004d
:100f7000c75ddd00f707b200878075002d003700e0
:100f8000828171000a017800610560008180d100d2
:100f90000080d3008502e900f9ff3b000604400011
:100fa0008784480002003b0060041400e0841c00b9
:100fb0000988a300070032008a81710082817100d4
:100fc000610164008904d1000884d3008b05e80026
:100fd000170037000978a30013003a000b00e00067
:100fe000130034008b05e9000804440089844c0098
:100ff0000a4474000978a3000d003a000b00e000d9
:10100000070034008b05e9000804440089844c0083
:1010100001003a000b0020000978a300f7ff32001e
:101020000001eb0002003700828171000a017800a4
:10103000810007000cf0a70001f0a000ca003700f3
:101040006420e10002003a00838f6c00ca00330084
:101050000801be000200be00c3003700889fbe002a
:101060008a9fbe008c1f7800ae000700b5003300d9
:1010700003866c006450e1002e0032006420e10021
:10108000330032006150e1002f0032006120e100a6
:101090003100320085855500eb07b00009002000c3
:1010a00008042000050037000804440089844c002f
:1010b0000a0031000603430087834b000001530000
:1010c00081815b00f8ff33000203be000800a0002e
:1010d0000804440089844c00f6ff3900c639dd005d
:1010e0008301730001003200130020008904d10045
:1010f0000884d3000998a300050032000800a70067
:101100000300a0008904d1000884d3008b05e80007
:101110008904d1000884d3000001eb000281d200d1
:101120004500070001f0a1000cf0a70001f0a000ad
:101130008d0037006420e1008f0032000801be00fe
:101140000200be00f7ff37006120e1008a00320094
:101150006000b800f3ff37000000200001f827000e
:10116000f0ff3700839f68000100e00002003d00af
:1011700060001000e08018000300e00002003d0065
:1011800060011100e0811900b20007004f00e0008b
:1011900002003b0060001000e08018000000060024
:1011a00014002000bb0037000001be00480007000b
:1011b0000470a70003f0a1006509b1001600320019
:1011c0000d0035006828e10006003500f0ff2f0013
:1011d000f1ff27000300e00013003b00010028009e
:1011e0000000050000004000818048008502e90001
:1011f000fcff3a0008003700f88f420002003c0074
:101200008000eb00000005008100d1000080d300c9
:101210008502e800fcff3a000300e00002003b000a
:1012200060001000e0801800000006004f89de001a
:1012300082017800b20037008100200061805500f3
:101240000b003d000b00200061fe2f000100e100bb
:101250001d00340082817100610164008904d100a5
:101260000884d3000000e800faff3a007100200073
:101270006100640003007000020060000900320099
:1012800061044400e0844c000988a5000500320098
:101290008b05e8006808e10002003a008904d100eb
:1012a0000884d300f20f20000258e10005003d0041
:1012b000c75ddd00f907b20089807500080078007d
:1012c000000006000bf827008b00780000000500e6
:1012d000c70ade00f107b200f50fb20008003200c5
:1012e000e1cf4200020032000170a000240005009e
:1012f000810f700001003200040805004400050061
:10130000810f700002003a00140005008502e90018
:101310000000400081c04800fcff3b000170a000bd
:10132000240005000004be00e9ff07000003be0022
:101330000405be000200be00e5ff0700844f7500f3
:10134000000006000200be006450e1000500360007
:101350006420e100020036000968a30001003a00a1
:101360000800be000160a0004f0678004f05be00d7
:101370004f04be0000000600f0ff2f00f1ff270021
:10138000f9ff3700889fbe008a9fbe008c1f78003f
:10139000e4ff0700ebff330003866c006450e100bc
:1013a000240032006420e100270032006150e10097
:1013b000220032006120e100210032008b854200d2
:1013c000eb07b1000134b800003ab800080442004d
:1013d00089844a00013ab8000030b8008880400093
:1013e00009014a00040033000000400081804800e9
:1013f000020149008b05e900c909dd008301700085
:101400000100320013002000c814de004814dd0083
:101410004709de001200b200c808de000884700030
:1014200085ff070001f0a1000cf0a70001f0a0006b
:10143000cdff37006120e100cfff32000801be0080
:101440000200be00f7ff37006150e100fcff3a00e8
:10145000c9ff37006022b800060220000000d0005b
:101460008180d2000482d2008582d2000000a000d8
:101470000202520083825a0003003100020242003d
:1014800083824a000000a1000603e900f3ff3a004e
:1014900000000600889fbe008a9fbe00841f78005f
:1014a000a0ff07004f00780011003300f0ff2f006d
:1014b000838f6c0006003b00040565000a00a7004e
:1014c0000800370009f0a6001000200008003700cf
:1014d000820f5400838f5c0003003900100020004d
:1014e00001003e000000200009f0a7000000ea0013
:1014f0004f05be004f04be000000e00000000600e3
:10150000881f7800030478000300e00007003d0016
:1015100060001000e080180060011900e0811900ef
:1015200002003b0001f02d0003003700040007001b
:1015300008f0a70001f0a0004f04780000000600aa
:10154000889fbe008a9fbe00008270000402710066
:1015500004827100260032000004be000200be00ba
:101560006011b8006b092000950220000182cf00b5
:101570000a0039000541b1000082cf0007003900a0
:101580000541b1000982cf00040039000541b100d6
:101590000882cf00010039000541b1000542520028
:1015a000120032000a003b00828171006101640078
:1015b0008100d1000080d3008984d3000884d30047
:1015c0008b05e8000442e800f7ff3a000700370007
:1015d0000804440089844c000000480081804800d1
:1015e0008b05e9000442e900f9ff3a0012ff070009
:1015f0004f05be004f04be000000060080017800c9
:1016000002003700b15978000201e9000200e00051
:10161000fcff3a000000060061962000440207002b
:10162000800078000080eb000100e000040035003d
:1016300061962000a0002000020007004f80de001d
:1016400000000600889fbe008a1f78000004be00cc
:10165000c900900069009000808f5000050039009b
:1016600009007800f40207008080eb000000e00031
:1016700016003500084578004900900008587800a9
:10168000c00498001900780000b8a30004003a00d4
:1016900000a8a30007003200ea4f540005003a00fa
:1016a00009007800e70107008080eb000000e000ff
:1016b00006003a0000c0200019006000020032005d
:1016c00049009000e00498008a80fb000100780047
:1016d0004f0578004f04be0000000600889fbe0042
:1016e0000004780001007800820478008801780006
:1016f000090178001100200055020700890f5000f1
:10170000010032000004eb00080078004f04be0026
:10171000000006000000fa00e88157004fb997006a
:1017200061962000e0b62000020007000080fa0069
:10173000000006006200fa00889fbe008a1f780041
:1017400000057800810478000204780083007800a6
:1017500080f92f000f004000e90407009a979f00ce
:10176000a9979f000000eb00b09f9f001885fb0029
:101770008a04fb000a05ea004f55de0050022000f3
:10178000808f54000d003200e10f55000b003a002d
:101790000a017800880078002f9097009f919700a9
:1017a00003000100a0979f000000e0008e003200bf
:1017b0003f9897000000e800b09f9f000a04440093
:1017c00050022000808f5400040032000900e00025
:1017d000e6ff3a003f989700840037000000eb00d6
:1017e000909f9f00809f9f00f0979f00e0979f0031
:1017f000d0979f00c0979f0007003700c19f20002f
:101800000100500000004000019f200061007800ae
:10181000df98970001007000d09f9f008804780037
:1018200009047800384578008a00fb00c09f20003a
:10183000650207000000e000f0ff3a00a1c2b3001b
:10184000814f55000e003a00cf8897000180e900d3
:10185000c08f9f0010007800c09f9f000000e00034
:1018600005003d000000ea00c09f9f005f989700c0
:101870000020a000d09f9f000904e8000f0037005f
:10188000c09f9f000000eb0005003700f2ff27001b
:10189000820f5000020032006a01b900028040004d
:1018a0000904780088047800b900fb000103b10046
:1018b000e98f5000f5ff3600c09f9f00e0c2b300e3
:1018c000984f1000020032000080eb001900370032
:1018d000a0c2b300d84f100007003a00cf8897008d
:1018e0000180e900c08f9f0010007800a09f9f003a
:1018f0000804e800100037000000eb00a09f9f00e4
:101900008800780005003700f3ff2700830f5000a0
:10191000020032006a02b9000400410001047800ac
:10192000880078003101fb000203b100e90f51008b
:10193000f5ff3600a09f9f00984478008900fb00c7
:10194000809e2000200207000000e000020032001c
:101950000804e800010037008044eb00c97f9f00c5
:1019600080c6b30080cf540004003a0098cf140022
:101970000a003a006640500006003700c0c6b300b7
:1019800080cf540005003a0098cf140003003a00bd
:1019900065404000c07f9f000804e8001801fb007c
:1019a000e3fb2f008f81410081f92f008f804000e1
:1019b000a0f92f000f004000100007000000e00019
:1019c00009003a00e1fb2f008f804000a0f92f00b2
:1019d0000f0040008e0307000000e0000200350009
:1019e0000804e80061ff37000080eb004f05780035
:1019f0004f04be000080fa0000000600889fbe0071
:101a00008a9fbe00e4c6b300844f5100be0032007e
:101a100010003c006b425200844f5100180032000d
:101a200005003c0054c2b300844f5100f600320060
:101a300084c5b3000f00370044c6b300844f510083
:101a40001400320065424200844f5100f1003a0018
:101a50001000370004c7b300844f5100dd0032008e
:101a60005600350065424200844f51005300320059
:101a700063424200844f5100e6003a004f003700b5
:101a80001181e90082087800f0009000124178008e
:101a9000de00370020629000c5c6b300854f5200bb
:101aa00007003a00910278006482520084087800ae
:101ab0001402be004fabde0086037800140037002e
:101ac00015c7b300854f520003003a001104780097
:101ad0006802540005003700a5c6b300854f5200c8
:101ae00006003a0091047800688254008408780067
:101af0005403be004402be00050037001182e90015
:101b00008408780014027800cfa2de00612bb900af
:101b10000498be000690be00a060900088c6b30086
:101b200088cf50000d00320028c6b30088cf500087
:101b300004003a000402fb00cfa2de00612bb900d2
:101b40000800370048c7b30088cf500003003200b8
:101b50006644440088cf500004003a00cfa2de0063
:101b6000612bb9000498be000690be003002be0092
:101b70002003be00f0009000e00f5200e08f5a00fa
:101b8000e00f5b00e08f5b0002003d00d4c2b300b9
:101b900008003700001290000418a3000200320071
:101ba000b4c2b300030037000408a30051003200a0
:101bb00004c2b30084f178004c003700206290002a
:101bc000c5c6b300854f520008003a0011057800e1
:101bd00064025500840878001404be006055b80003
:101be0000802be000a03be001400370015c7b30088
:101bf000854f520003003a00910478006882540037
:101c000005003700a5c6b300854f520006003a0014
:101c10001105780068025500840878005403be005e
:101c20004402be00050037001182e90084087800f4
:101c3000140278008002eb006033b8000498be0004
:101c40000690be00a060900088c6b30088cf500008
:101c50000d00320028c6b30088cf500004003a00bf
:101c60000482fb008002eb006033b80008003700fc
:101c700048c7b30088cf50000300320066444400d8
:101c800088cf500004003a008002eb006033b800b7
:101c90000498be000690be00801090000138a3009a
:101ca000140032003002be002003be00e00f5200dc
:101cb000e08f5a00e00f5b00e08f5b000d00320008
:101cc00081c7b300814f51000300320081c5b300ca
:101cd000814f510007003a00f000900004c3b300a8
:101ce00084f178008100e80082f178008100e8004a
:101cf00071009800f000900081814100630098001d
:101d0000824078003e003700a0619000c4c6b30056
:101d10001181e90084cf5100220032000a003c000a
:101d20006442520084cf51002500320004c2e80012
:101d300084cf5100130032006842520084cf51001a
:101d40001e003a000a00370044c7b30084cf510098
:101d50001b0032006642420084cf5100180032005e
:101d60006942520084cf510014003a000500370048
:101d700082087800920078004058900080487800ef
:101d80002c0037008208780092007800600a9000ea
:101d9000cfa2de00612bb9008498be008690be0001
:101da00024003700820878009200780060099000d3
:101db000cf91de008288be001e0037001181e9004d
:101dc000820878009200780060089000800878000f
:101dd000180037001181e9008208780012027800ab
:101de000cfa2de00612bb9000498be000690be00b1
:101df000f0009000818141006300980081c7b3002a
:101e0000540107000b003700f000900082f17800c9
:101e100006003700f0009000818141000204e000dc
:101e200001003a0052c2b300824978008100e80004
:101e3000710098000000eb004f05be004f04be008b
:101e400000000600889fbe008a1f7800000478000a
:101e50000800e0000d003a00489b20007005440097
:101e60008004eb00580078000000e000040032001d
:101e7000f4ff07000000e00001003d008084eb005b
:101e80008a0f5400f7ff3a002500370000002200b7
:101e9000180060008004eb0021003200a8049000cc
:101ea0000f00370009015100384090000000fb008e
:101eb000890078009efb07000000e00007003c005e
:101ec000280090004004980060049800500c98008e
:101ed0001890a0008084eb0011003700808444003b
:101ee00048019000828f5400eeff390028009000d6
:101ef000400498009800780002c020000281600031
:101f000001003a003800900001e8a300020032000e
:101f10006004980001003700500c98008004eb002a
:101f2000090078004f0578004f04be00000006004d
:101f3000889fbe008a9fbe0080047800010478005c
:101f40002c003700c800900068009000808f50007f
:101f50000400390008007800b70007000000e00026
:101f600037003500004020001800600009003200f2
:101f7000a100200009007800a50007008005780076
:101f80000b00e00003003200618514000a85450063
:101f9000040037000900780097000700000578006a
:101fa0008005eb0048009000e80090008080500021
:101fb0008a8f500002003100010578008005eb0097
:101fc0000a017800890078008cfd07004800900025
:101fd0000a004000400498000b00e00004003200ba
:101fe0000800780097ff07000000e00014003a00a6
:101ff0008a8444001904e000d2ff3a0000802000e7
:102000001800600006003200080078008dff07000d
:10201000800078000080eb000100e00009003a0039
:1020200001c02000988060000000eb000500320035
:1020300048009000600498000000eb0001003700a9
:102040000080eb004f05be004f04be0000000600fc
:10205000889fbe008a9fbe008c9fbe008e1f7800a6
:1020600000067800010478000200780083047800fc
:102070000881b900020778000200e0004200320047
:102080000800e0004100320082057800c90090009d
:1020900069009000808f500004003900090078002a
:1020a000650007000000e000290035000040200026
:1020b000190060000a0032000b017800a100200026
:1020c0000c00780036000700800678000d00e00064
:1020d00006003200610516000a854600040037003c
:1020e0000b0578008006eb00010037000b05780037
:1020f00049009000e9009000808050008a8f5000d5
:1021000002003100010578008006eb000a0178002a
:102110008c00780039fd07008a8555004900900041
:102120000a004000c00498000d00e00004003200e6
:102130000900780043ff07000000e00004003a00b7
:102140000b00e000020032000a064600cfff370015
:1021500000802000190060000200320009007800b1
:1021600038ff070000c020001900600002003200a4
:1021700049009000e00498008b0557001100090009
:102180008885d800010037000000eb004f07780079
:102190004f06be004f05be004f04be000000060003
:1021a00003003700b0cf1000050032000201e90043
:1021b000800178000200e000faff3a00000005000c
:1021c0000300780000000600020037000304e0006e
:1021d000060032000001780002007800b04178006b
:1021e00081cf5100f9ff3a00010037000001eb00f8
:1021f00002007800000006008000780001017800ed
:102200003104e000fdff3a0000005100000006002c
:102210000001eb0000027800b041780081cf51004e
:1022200001003a00040178000304e000f9ff3a00dd
:102230000200780000000600889fbe008a1f780018
:1022400000047800c8009000680190000000eb00d6
:10225000828f50003c0039001800780022002900cd
:1022600002016000e20f510007003200012024004b
:102270000000e00001003d0001202000008c700003
:102280000080eb00300037000200260002006000f2
:10229000820f500009003a0038009000808f5000f3
:1022a0000600390008007800e6fe0700800078008c
:1022b0000080eb000100e00023003a0018057800e0
:1022c00000c020000000650018003a00a80490003b
:1022d0006002200008004000808f540013003a0084
:1022e00000202000dc020700200498000000e0002d
:1022f00005003a0029049800490498008904e80080
:1023000039049800080037000a60a0000a0c780021
:102310004004980001202000808040003104980093
:10232000400c9800500c9800f9010700280090001c
:1023300050049800380090006004980000002600c7
:10234000180c70000000eb004f0578004f04be0031
:1023500000000600fc874700889fbe008a9fbe00e1
:102360008c9fbe008e1f78000006780080c5b300e9
:1023700080cf50000a0032007740400080cf5000ec
:102380000a0032006940400080cf50000b0032004c
:10239000709d200080bf9f00ae0020000a00370023
:1023a000629c200082bf9f0006003700739d2000c2
:1023b00083bf9f008e00200003003700749d200023
:1023c00084bf9f000e0120003c02be002c03be0013
:1023d0000605be000404be0040c6b30080cf500016
:1023e000030032006540400080cf50000b003a00ef
:1023f000e00f5200e08f5a00e00f5b00e08f5b00bf
:1024000006003d006000b8006011b80004045000f0
:10241000858458000605590087855900e80f570044
:102420000400320040002000f00f570038003a004e
:102430000100370030002000e00f5400e08f5c0006
:10244000e00f5d00e08f5d0004003a00dc089000c2
:102450008d0120000100e000060032008e00e9003e
:10246000888060008fba9700e5c07800f1ef9f0088
:102470007d012000800078008100e9000500330024
:102480008b05d1000a85d3008984d3000884d3004a
:10249000f9ff3700089ebe000a96be001200370002
:1024a0008d06e9008e00e900848060000fb9970076
:1024b000e2c1780082fd2f000f01410003f17e0090
:1024c000800078008100e900050033008783d10097
:1024d0000683d3008582d3000482d300f9ff37003e
:1024e000049ebe000696be003c02be002c03be0049
:1024f000e00f5200e08f5a00e00f5b00e08f5b00be
:102500008b0034000d00e000e5ff3c008800370040
:102510002c60900081c6b300814f50000b00320048
:1025200006003c000004e00008003200e6c0500055
:10253000814f50004e003a0004003700c1c6b3007e
:10254000814f50004a003a00210037000800e000a7
:1025500004003a005c0890008d0120000000e000bb
:1025600006003200110009000e84d8000fb9970050
:10257000e2c07800f1ef9f007d012000110009000a
:102580000e84d8000a003700110009000e04d8009c
:102590008d06e9000e81b900020454008fb897003f
:1025a00061417c0081fd2f008f80400082f07e0021
:1025b000000478000800e000020032000d00e00096
:1025c000f1ff3c00cfc4de00614db90025003700ab
:1025d000e00f5400e08f5c0004003a005c089000bb
:1025e0008d0120000000e000070032006171b90099
:1025f0000800be00520207008fb99700e34178003f
:10260000f3ef9f007d0120006171b9000800be005a
:1026100090fb07000b0037006171b9000800be0095
:10262000d0fa07008d06e90000f1b9000204540059
:102630000fba9700e4427c0084fd2f000f02420095
:1026400005f27e000004be00e00f5000e08f58004d
:10265000020032000d00e000efff3c004fcdde0035
:102660008a057800089ebe000a96be00300037003a
:10267000e00f5400e08f5c00e00f5d00e08f5d0034
:1026800004003a005c0890008d0120000000e0008a
:10269000090032006172b900612bb9000800be0068
:1026a0000a01be00cf0207000fba9700644278000b
:1026b000f4ef9f007d0120006172b900612bb90029
:1026c0000800be000a01be00bf0207000d0037006f
:1026d0006172b900612bb9000800be000a01be009a
:1026e000c40207008d06e90000f2b900040454009a
:1026f0008fba970065427c0085fd2f008f824200d3
:1027000084f27e00009ebe000296be003c04be0025
:102710002c05be00e00f5400e08f5c00e00f5d0070
:10272000e08f5d00020034000d00e000e8ff3c0097
:10273000e80f570010003a000c1090000038a3007a
:102740000d003200f78f560006003e0085fd2f0079
:102750008f824200e5c07e0000c3b30080cf5000ee
:10276000050032008d06e90002c3b30081fd2f0091
:102770008f80400082f07e0078811600120e980053
:102780006c00900083fd2f008f8141008d804100ff
:102790009afb07001c089000dc089000810f500095
:1027a00006003d0000805000000e98000c109000c4
:1027b0000040a100001698000f0037000100e00063
:1027c0000d003d008c109000f4806000f08f5000f0
:1027d00009003a007c099000fc0090008100510043
:1027e0000c09900082805000008050004240a900f7
:1027f00001003400000e98004f0778004f06be001d
:102800004f05be004f04be00cf01b100000006001e
:102810000400fa00889fbe008a9fbe008c1f7800cb
:102820000004780001067800f80d90007800900010
:102830008085550008089000808555001808900094
:102840008085550028089000808555003808900044
:1028500080855500480890008085550000022200c0
:1028600090bf9f0000032300a0bf9f0008109000ae
:102870000028a30015003a000b00e000130034000c
:102880000b0578008a047800e20f5500010036003d
:1028900029002000c801900009017800ee8057004f
:1028a0005800900003000100500498000000e00070
:1028b0008c0032006808900009004000600c98000d
:1028c000090555004240a900eeff3c007801900048
:1028d0000200e0000c003400c80190008c00780079
:1028e0005800900003000100500498008080eb0025
:1028f0000000e0007c003200e808900078009000c2
:1029000000804000600c9800880c90000900e000f6
:102910001100340009057800e28f540001003600f0
:102920002a002000c80190000a017800ec805700be
:102930005800900003000100500498000000e000df
:1029400068003200680890000a004000600c98009f
:102950008a845400edff3700180990000200e0005f
:102960000c003400c8019000e8009000580090006e
:1029700003000100500498008080eb000000e0009c
:1029800059003200e80890001808900000804000cc
:10299000600c9800a80c90000900e00011003400c1
:1029a00009057800e28f5400010036002a0020005b
:1029b000c80190000a017800ec8057005800900090
:1029c00003000100500498000000e00045003200c0
:1029d000680890000a004000600c98008a84540047
:1029e000edff3700380990000200e0000e003400cf
:1029f000e80090001808900080804000c801900016
:102a00005800900003000100500498008080eb0003
:102a10000000e00034003200e80890003808900020
:102a200000804000600c9800c80c90000900e00095
:102a30001100340009057800e28f540001003600cf
:102a40002a002000c80190000a017800ec8057009d
:102a50005800900003000100500498000000e000be
:102a600020003200680890000a004000600c9800c6
:102a70008a845400edff3700081090008000eb00be
:102a80000028a300180032000b00e00016003400fc
:102a90008b04780009057800e28f540001003600ad
:102aa0002a002000c80190000a017800ee8057003b
:102ab0005800900003000100500498000000e0005e
:102ac00008003200680890000a004000600c98007e
:102ad0008a8454004240a900eeff3c008000eb00d5
:102ae000010037008080eb00010078004f0678007d
:102af0004f05be004f04be000080fa000000060033
:102b00000108780000000600a06221006100370083
:102b1000881f780068a020001804e00003003a0035
:102b2000f9ff070020c0b300004c78004f04780084
:102b300000000600889fbe000004780008007800ae
:102b4000c0fc07008004780000042000180060002a
:102b500002003200280090005a0007000000eb003d
:102b600020049800384090000004e0000500350083
:102b70000000fb0065f807000000e00001003200e3
:102b80008084eb00181090000000e0000800320084
:102b9000a9f807000000e000010032008084eb008b
:102ba00018109000470007000000eb001014980078
:102bb0000008200018006000150032000001eb0042
:102bc0006000b800639b20000202d00063027a001c
:102bd000880f520005003a00000040008180480044
:102be000008041000008eb00060037006100400053
:102bf000e08048000201e800e80f5000e08f580034
:102c0000f0ff3a00080078002e0007000e003700a1
:102c1000000c780000c0eb003044980060022000f7
:102c200008004000200498004004980050049800d8
:102c3000400c980060049800500c980070049800b4
:102c400076004400000c9800090078004f04be0094
:102c500000000600881f78000004eb006140b80007
:102c6000e2ff2f00f3ff2f00b8000700429c200076
:102c7000620078000000e00001003200adff0700b4
:102c80000804e800e80f5400f4ff3a004f0478000d
:102c900000000600010020000100e00008003200f2
:102ca000010080000100e000050032008100e90021
:102cb000010088008100d0000200800000b178008f
:102cc000000006000000e0002f003200c001780084
:102cd000e38f51002c0036000308a3002a003a00bd
:102ce000215080000100e00002003200810f5000fe
:102cf00004003100110098002050880016003700b1
:102d000082007800110190000200e0000200320011
:102d1000800f5100faff39001102780084824000d0
:102d2000850f500018003900808f520003003a00d0
:102d30008308420001007800070037000200e0002d
:102d40000300320083014000830f51000e00390060
:102d50001200980090009800900090000100e000a0
:102d60000900320010014000828f500006003a0036
:102d700022a020000009eb0010017800110841009a
:102d8000910090001100980000000600889fbe008e
:102d900000047800115080000100e00002003200c1
:102da000010078000d0037002150800040a0200075
:102db00004003700910f5400250036000180e80020
:102dc000910090000100e000faff3a001000370087
:102dd000920f54001e0036000280e80010017800b7
:102de0000200e000faff3a00110178002150800053
:102df00040a0200004003700910f5400140036005a
:102e00000180e80091009000828f5000faff3a00a4
:102e100049508000888f54000100310088047800f8
:102e200009007800360007000000e00004003a00c6
:102e3000888f5400050032008904d100f5ff370067
:102e4000091878009fff0700d2ff37000000eb0051
:102e50004f04be0000000600881f78006304400095
:102e60000800a1008000eb00800f54002100360014
:102e7000e30f540001003e004800200008007800e5
:102e8000c2ff07008000eb000000e00019003200e4
:102e9000900078009101780064815100880f510002
:102ea000030031001101900002087800070037008c
:102eb00008814000020878009101900013019800f9
:102ec00010017800110914008808780010017800ba
:102ed0000000eb000200e0000400320092019000cc
:102ee0000300e000010032000280e800105088007a
:102ef0008180e800010078004f047800000006009f
:102f0000800078000000eb000100e00005003400c4
:102f100001007800d1f70700e10f400001003a00fe
:102f20000000eb000000060000c0da000000060010
:102f300000c0da000000060000c0da000000060051
:102f400044f907000400be0000000600020ab900b0
:102f5000001bb9000200b80081004200810043005c
:102f600000000600889fbe008a9fbe003004420019
:102f7000b0844a0030054b0090854b006000b100e2
:102f80000898be000a90be000440e10005c8e100b8
:102f900006d0e10007d8e1000200310068004000df
:102fa0001008e8004f05be004f04be0000000600f8
:102fb000889fbe008a9fbe003004be002005be0070
:102fc0000418540005985c0006185d0007985d0021
:102fd000110020000440e10005c8e10006d0e10036
:102fe00007d8e100010039008000eb0010881000d4
:102ff0004f05be004f04be00000006001200fa009c
:10300000889fbe008a9fbe008c9fbe00e0b79f00d5
:10301000f1b79f0082bf9f0093bf9f000605be00cf
:103020000404be000000eb00d0b79f00c0b79f00b3
:10303000b0b79f00a0b79f0090b79f000006eb00bd
:103040005fb19700cfb09700820141003fb0970079
:103050000200e00004003d00370007007e805700ba
:10306000c0ff070003003700330007007e805700d1
:10307000cfff0700dfb697000d00e0000c00350021
:103080006fb29700ffb297000fbb97009fbb9700ee
:1030900010002000010020006011b8000002720042
:1030a0008182720002037300838373001b00070098
:1030b0000c06e80001042000810f5600e0ff3a00f2
:1030c0000d00e00004003d000802be000a03be003f
:1030d0007e805700a3ff07005fa897000000e00074
:1030e00005003a001fb29700afb297003fb39700b8
:1030f000cfb39700090007006fb09700ffb09700ab
:103100000fb997009fb997004f06be004f05be004c
:103110004f04be000080fa00000006000100070016
:1031200000000600a4b79f00b5b79f00c6b79f0078
:10313000d7b79f00000006004f09de0082817100b2
:10314000b3b79f004f01de00818040008280700095
:10315000a1b79f008fb097004f09de00000040002c
:103160000200700090b79f007fa897004f01de001b
:10317000818040008280700081b79f000d000700b1
:103180004f3ade000000400004007000f0af9f00e6
:10319000080007000402420085824a0006034b0033
:1031a00087834b00dfff07000802be000a03be0052
:1031b000000006002fb29700bfb297004fb39700f0
:1031c000dfb3970000000600881f78001800200079
:1031d000881f780089ff07008f87e9004f04780077
:1031e00000000600801feb0084ff07008f87e900c6
:1031f00000000600889fbe008a9fbe00e00f5000be
:10320000e08f5800e00f5900e08f59000c003d009e
:103210006044b8006055b8000000540081805c0034
:1032200002015d0083815d00180020001500070089
:1032300008003d00180007000004eb0005003700ff
:103240000004eb000f00070002003d001200070021
:1032500018002000dcff07000800e0000600320034
:103260006022b8006033b8000000520081805a002c
:1032700002015b0083815b004f05be004f04be006e
:1032800000000600e00f5200e08f5a00e00f5b00e4
:10329000e08f5b00000006006044b8006055b80095
:1032a0000402540085825c0006035d0087835d0094
:1032b00000000600889fbe008a9fbe008c1f780019
:1032c000e00f5000e08f5800e00f5900e08f5900e8
:1032d0000d003d006044b8006055b8000000540087
:1032e00081805c0002015d0083815d001c00200084
:1032f0000820e10009a8e1000ab0e1000bb8e100f4
:103300000d003d00080037000006eb00e00f520002
:10331000e08f5a00e00f5b00e08f5b0006003d008d
:103320006044b8006055b8000402540085825c0017
:1033300006035d0087835d00aaff07000c00e00024
:10334000060032006022b8006033b800000052006e
:1033500081805a0002015b0083815b004f06780088
:0c3360004f05be004f04be000000060038
:020000040000fa
:10336c00443a000020250000640a000000500000d0
:10337c003a2000002d25000030350000640a0000c2
:10338c00005000003a200000253000003564000099
:10339c000a00000043000000444b000000490000fc
:1033ac00314800000049000032480000004900008c
:1033bc00324c000000490000314c00000045000078
:1033cc0074680000657200006e65000074200000d7
:1033dc00776f0000726b0000696e000067210000bf
:1033ec000a000000021e0000e38000000aa4000096
:1033fc00ffff0000ff0000000a0100006dfe00004e
:08340c000a0100006d1d000023
:020000040000fa
:103414000200fa00004f78001e80fb002011880093
:1034240000000000210480000000210000806000f2
:103434000000e000fbff32008580a9000080fa0054
:10344400000006000000fa0001000700ffff37003b
:103454000000fa000d0007002b1007009d0e070066
:1034640011c0b300025822000300200010c0b300b2
:103474001c03070012c0b30001c429000040eb0084
:103484003c0007000080fa00000006000000fa007b
:103494004580a9004420a90081e0a800413a8000a9
:1034a40000fc2f00008060000010a000403a88005b
:1034b40090022000303a8800213a8000f0f32f0077
:1034c40000806000203a8800213a800000fe2f002e
:1034d40000806000203a880012002000800720004d
:1034e400a1092000337420008049780081497800c4
:1034f4008249780012002000600420007105200039
:10350400237420008049780081497800824978003a
:1035140000000000113a8000000027008080600055
:1035240000002100808f5000faff3a0000000000e4
:10353400113a800000022000008060000000e000da
:10354400fbff32000080eb006019880021e3a90032
:103554007007a800c942a900c962a900c982a900cc
:10356400c9a2a800c9e2a900c002a8000080fa000c
:10357400000006000600fa00004f780011079800ca
:103584004247980084e0a9004e40900061406000ea
:103594000080fb00610060004700dd00a2048000a1
:1035a400f1f72f008100610001007000a004880081
:1035b40031058000f0ff28000080600000e0a000da
:1035c400300588009e40780063c06000634060005e
:1035d400634060000080fb00630060004400dd0085
:1035e40082088000f1fc2f0081006100010070005e
:1035f4008008880010c1a9001061a9001021a90049
:103604009e009000610888004e4090006140600078
:103614000080fb004f00dd0082088000f1ff2700de
:103624008100610001007000800888000080fa00b9
:10363400000006000600fa000040eb00004f78008e
:103644000040eb00104798000228ef006400470098
:10365400800078000000eb00fe0e07001047980081
:103664009e409000a0cab30080cf500037003a00bb
:10367400640047008000780030002000f50e070049
:10368400204798004e4090000004e000f8ff3a0004
:10369400640047008000780040002000ed0e070021
:1036a400304798004e4090000004e000f8ff3a00d4
:1036b4002e4090000080fb00e20f5000100032000a
:1036c400e20f500003003c00e10f500006003200fe
:1036d40023003700e30f50000f003200e40f5000c6
:1036e400140032001e003700be4090000258220031
:1036f4000300200020c0b3007a020700180037003e
:10370400be40900002b024000300200020c0b3009b
:103714007402070012003700be40900002602900c6
:103724000300200020c0b3006e0207000000000068
:103734000b003700be40900002202c001300200034
:1037440020c0b30067020700050037008040eb008b
:10375400025822000300200020c0b30061020700c9
:1037640032c4b30061c0b30010c0b300ec0c070056
:10377400bb0d07001428ef001628ef001828ef00ef
:103784001a28ef001c28ef001e28ef0010c0b30019
:1037940020e8b70010c0b30021e8b70040062000bd
:1037a40001002000804188009141880040062000eb
:1037b400704188003428ef003628ef006400470089
:1037c4008000780050002000a20e070010479800e7
:1037d4009e409000a0cab30080cf50005b003a0026
:1037e400320d07009e0d070064004700800078003a
:1037f40060002000970e0700204798004e4090007c
:103804000004e000f8ff3a002e4090000080fb0026
:103814008000eb00a0408800b1408800a2408000f6
:10382400b34080004818dd00c810de00810070003d
:103834004810dd00a0408800b140880064004700c3
:103844008000780070002000820e07002047980056
:103854004e4090000004e000f8ff3a002e40900033
:103864000081fb008001eb00a0408000b14080009b
:103874000200400083804800a0408800b1408800d6
:10388400a2408000b34080004818dd00c810de006c
:10389400810070004810dd00a0408800b14088001d
:1038a400640047008000780080002000690e070053
:1038b400204798004e4090000004e000f8ff3a00d2
:1038c4002e4090000081fb008001eb00a0408000ae
:1038d400b14080000200400083804800a04088007e
:1038e400b1408800a2408000b34080004818dd0049
:1038f400c810de00810070004810dd00a040880080
:10390400b1408800640047008000780090002000e7
:10391400500e0700204798004e4090000004e0003d
:10392400f8ff3a002e4090000081fb008001eb007c
:10393400a0408000b1408000020040008380480025
:10394400a0408800b14088001e4fe8006400470092
:1039540080007800a00020003e0e07001047980069
:103964009e409000a0cab30080cf5000b1003a003e
:103974006400470080007800b0002000350e070086
:10398400204798004e4090000004e000f8ff3a0001
:103994002e4090000080fb008000eb00c0408800b7
:1039a400d1408800c2408000d34080004818dd0028
:1039b400c810de00810070004810dd00c04088009f
:1039c400d14088006400470080007800c0002000d7
:1039d400200e0700204798004e4090000004e000ad
:1039e400f8ff3a002e4090000081fb008001eb00bc
:1039f400c0408000d1408000020040008380480025
:103a0400c0408800d1408800c2408000d34080007c
:103a14004818dd00c810de00810070004810dd0089
:103a2400c0408800d14088006400470080007800ce
:103a3400d0002000070e0700204798004e40900059
:103a44000004e000f8ff3a002e4090000081fb00e3
:103a54008001eb00c0408000d140800002004000a3
:103a640083804800c0408800d1408800c240800064
:103a7400d34080004818dd00c810de0081007000cb
:103a84004810dd00c0408800d14088006400470031
:103a940080007800e0002000ee0d07002047980029
:103aa4004e4090000004e000f8ff3a002e409000e1
:103ab4000081fb008001eb00c0408000d140800009
:103ac4000200400083804800c0408800d140880044
:103ad4006400470080007800f0002000dd0d07003e
:103ae400204798004e4090000004e000f8ff3a00a0
:103af4002e4090000080fb008000eb00e040880036
:103b0400f1408800e2408000f34080004818dd0066
:103b1400c810de00810070004810dd00e04088001d
:103b2400f140880064004700800078000001200014
:103b3400c80d0700204798004e4090000004e000a4
:103b4400f8ff3a002e4090000081fb008001eb005a
:103b5400e0408000f1408000020040008380480083
:103b6400e0408800f1408800e2408000f34080009b
:103b74004818dd00c810de00810070004810dd0028
:103b8400e0408800f140880064004700800078002d
:103b940010012000af0d0700204798004e40900010
:103ba4000004e000f8ff3a002e4090000081fb0082
:103bb4008001eb00e0408000f14080000200400002
:103bc40083804800e0408800f1408800e2408000a3
:103bd400f34080004818dd00c810de00810070004a
:103be4004810dd00e0408800f14088006400470090
:103bf4008000780020012000960d070020479800df
:103c04004e4090000004e000f8ff3a002e4090007f
:103c14000081fb008001eb00e0408000f140800067
:103c24000200400083804800e0408800f1408800a2
:103c34001e4fe80064004700800078003001200037
:103c4400840d0700104798009e409000a0cab3005e
:103c540080cf500013003a006400470080007800d1
:103c6400400120007b0d0700204798004e40900043
:103c74000004e000f8ff3a002e4190000182200089
:103c84008248780020c8bf000080fb00801f7800b5
:103c9400609b2900801f78009df60700e487570089
:103ca4001e4fe800640047008000780050012000a7
:103cb400680d0700104798009e409000a0cab3000a
:103cc40080cf50000b003a00640047008000780069
:103cd400600120005f0d0700204798004e409000cf
:103ce4000004e000f8ff3a002e4190001182200009
:103cf400824878006400470080007800700120004a
:103d0400540d0700104798009e409000a0cab300cd
:103d140080cf500058003a006400470080007800cb
:103d2400800120004b0d0700204798004e40900072
:103d34000004e000f8ff3a002e4090000080fb00f1
:103d44008000eb008041880091418800824180001e
:103d5400934180004818dd00c810de008100700027
:103d64004810dd00804188009141880064004700cc
:103d74008000780090012000360d0700204798004d
:103d84004e4090000004e000f8ff3a002e409000fe
:103d94000081fb008001eb008041800091418000a4
:103da40002004000838048008041880091418800df
:103db40082418000934180004818dd00c810de0075
:103dc400810070004810dd00804188009141880026
:103dd4006400470080007800a00120001d0d07004a
:103de400204798004e4090000004e000f8ff3a009d
:103df4002e4090000081fb008001eb008041800098
:103e04009141800002004000838048008041880086
:103e14009141880082418000934180004818dd0070
:103e2400c810de00810070004810dd008041880069
:103e3400914188006400470080007800b0012000b0
:103e4400040d0700204798004e4090000004e00055
:103e5400f8ff3a002e4090000081fb008001eb0047
:103e6400804180009141800002004000838048002e
:103e740080418800914188006400470080007800f8
:103e8400c0012000f30c0700104798009e409000ea
:103e9400a0cab30080cf50001b003a006400470062
:103ea40080007800d0012000ea0c07002047980029
:103eb4004e4090000004e000f8ff3a002e409000cd
:103ec4000080fb0070418800704180004800dd00e4
:103ed400704188006400470080007800e001200001
:103ee400dc0c0700204798004e4090000004e000de
:103ef400f8ff3a002e4090008080fb007041800063
:103f04000080400070418800640047008000780011
:103f1400f0012000cf0c0700104798009e4090004d
:103f2400a0cab30080cf500058003a006400470094
:103f34008000780000022000c60c0700204798008b
:103f44004e4090000004e000f8ff3a002e4090003c
:103f54000080fb008000eb00a0418800b141880094
:103f6400a2418000b34180004818dd00c810de0083
:103f7400810070004810dd00a0418800b141880034
:103f8400640047008000780010022000b10c070094
:103f9400204798004e4090000004e000f8ff3a00eb
:103fa4002e4090000081fb008001eb00a0418000c6
:103fb400b14180000200400083804800a041880095
:103fc400b1418800a2418000b34180004818dd005f
:103fd400c810de00810070004810dd00a041880098
:103fe400b14188006400470080007800200220006e
:103ff400980c0700204798004e4090000004e00011
:10400400f8ff3a002e4090000081fb008001eb0095
:10401400a0418000b141800002004000838048003c
:10402400a0418800b1418800a2418000b3418000d2
:104034004818dd00c810de00810070004810dd0063
:10404400a0418800b14188006400470080007800e6
:10405400300220007f0c0700204798004e4090005b
:104064000004e000f8ff3a002e4090000081fb00bd
:104074008001eb00a0418000b141800002004000bb
:1040840083804800a0418800b141880010c0b3007b
:10409400e404070020c0b300e204070030c0b3000a
:1040a400e00407001e407800e34f500001003a008e
:1040b4005e28ef0020c0b300f20b0700f0182000c8
:1040c40001002000be0d0700bd05070010c0b300ad
:1040d40006e8b70010c0b300ea0b07000080fa003e
:1040e400000006000a00fa00204798002207980002
:1040f40033079800014f98002e4090000080fb0089
:10410400e10f500003003200e20f50005a00320069
:10411400ac00370021e2a9000001eb00600420009c
:1041240071052000237420008049780081497800bb
:10413400824978002135800000fe2f000080600055
:104144000010a0002035880011368000f00f2e00ea
:10415400808060000030200001007000103688006c
:104164000204200060042000710520002374200054
:104174008049780081497800824978000e4890008f
:10418400614060000080fb00610060004b00dd00c6
:10419400a2048000f17f2f00810061000100700003
:1041a400a00488008560a90023a2a8000e489000fe
:1041b400614060000080fb004f00dd0002118000c0
:1041c400f1ff2700810061000100700000118800e8
:1041d4002162a8002062a8002e019000be01900078
:1041e400e08325008109200099f40700000078008d
:1041f4000000e90040118800000000000011800068
:104204004f00de00004078008080fb000e489000e4
:104214000080fb00808f5000f8ff3a000e489000a9
:10422400614060000080fb00610060004a00dd0026
:1042340012118000f1bf2f008100610001007000a5
:10424400101188008580a90000c029000100200009
:104254005b0d07002222a900020037003011800004
:10426400004f780010118000610060000000e00041
:10427400faff3a005300370031e2a9000001eb00d5
:104284006004200071052000237420008049780018
:1042940081497800824978003135800000fe2f0082
:1042a400008060003035880001368000f00f2e0059
:1042b40080806000005020000100700000368800fb
:1042c40002042000600420007105200023742000f3
:1042d40080497800814978008249780087c0a90024
:1042e400c9a2a8000e489000614060000080fb0055
:1042f4004f00dd0082118000f1ff27008100610082
:1043040001007000801188003162a8003062a800aa
:104314002e019000be0190004218dd00ce10de0098
:10432400810070004210dd000001be00a00f2600d5
:104334001126200046f40700000078000000e90080
:10434400c011880000000000801180004f00de00d2
:10435400004078008080fb000e4890000080fb0045
:10436400808f5000f8ff3a000e48900061406000d2
:104374000080fb00610060004a00dd0092118000b3
:10438400f1bf2f00810061000100700090118800ce
:1043940087e0a90000c0290001002000080d0700e3
:1043a4003222a90002003700b0118000004f7800cb
:1043b40090118000610060000000e000faff3a0004
:1043c400000000000080fa00000006000600fa0069
:1043d400004f78001147980022479800334798000f
:1043e4004447980021088000f0fc2f000080600002
:1043f400200888000441a9000421a800313180006c
:104404000030200001007000303188005005200089
:10441400303b8800a00a2000303b880027a6a80073
:1044240027e6a9001e80fb00203188008e80e8006a
:104434000e00e800d10c0700203188000040eb009a
:1044440010479800e30047000e00e800cb0c07007b
:10445400203188008e00e80064004700c70c070084
:104464002031880027e6a80027a6a9000080fa00ca
:10447400000006000e00fa00889fbe005007980056
:10448400610798000040eb0040479800c04080005e
:10449400d140800064f3070030079800410798007a
:1044a40002002000a34724003e009000ce009000ac
:1044b400e9f207003007980041079800a040800007
:1044c400b14080005e019000ee01900000005100b8
:1044d4008180590054f30700c0418800d14188000d
:1044e400c0418000d14180003e019000ce01900087
:1044f400a3f307000004be00e2408000f340800004
:10450400a0408000b140800000005100818059002b
:1045140045f307000001be000800be00cef207000c
:10452400c0418800d141880021c8bf000080fb0041
:10453400e20f50002c003200e30f50005200320012
:10454400e10f500078003a00e0418000f141800022
:104554000001be0063f207000002be00c0418000fb
:10456400d14180000001be000400be005df20700de
:104574000002be0000428000114280000001be0023
:104584000400be0057f207000004be004042800051
:104594005142800002002000431b240078f30700ee
:1045a4000001be000800be004ef207000004be0079
:1045b400604280007142800002002000830c2400cd
:1045c4006ff307000001be000800be0044f20700bc
:1045d40082582400a3d4230069f3070020428800f2
:1045e4003142880050003700e0418000f1418000f2
:1045f4000001be003bf207000002be00c041800083
:10460400d14180000001be000400be0035f2070065
:104614000002be0000428000114280000001be0082
:104624000400be002ff207000004be0040428000d8
:104634005142800002002000d32d240050f30700d3
:104644000001be000800be0026f207000004be0000
:104654006042800071428000020020009322240006
:1046640047f307000001be000800be001cf207006b
:10467400624a2c0023c6230041f30700204288002d
:104684003142880028003700e0418000f141800079
:104694000001be0013f207000002be00c04180000a
:1046a400d14180000001be000400be000df20700ed
:1046b4000002be0000428000114280000001be00e2
:1046c4000400be0007f207000004be004042800060
:1046d4005142800002002000033e240028f307001a
:1046e4000001be000800be00fef107000004be0089
:1046f40060428000714280000200200043342400a4
:104704001ff307000001be000800be00f4f107001b
:104714000200200003b8230019f307002042880098
:104724003142880000000000e0418000f141800037
:104734000042880011428800c0418000d1418000bd
:10474400e0418800f14188004042800051428000ed
:10475400604288007142880020428000314280001b
:104764004042880051428800224280003342800047
:10477400028fbe000040eb0040479800080037005d
:1047840002002000031224001e00be00fcf20700f9
:10479400008fbe004e4090000040e8004047980063
:1047a40020c8bf00ce40900080cf5000f4ff3900f5
:1047b4001e00be004f04be000080fa000000060088
:1047c4000a00fa00889fbe008a1f780040079800fc
:1047d4006000b800008fbe006000b8002007980099
:1047e400310798004e009000e20f50000e00320096
:1047f400e20f500005003e000000e00069003200b6
:10480400e10f50000600320069003700e30f50004a
:1048140007003200e40f5000070032006400370044
:10482400670007006200370074000700600037006b
:10483400310107005e003700aa0807000004e00009
:104844000d0032006ac8bf000004e0000c00320012
:104854003d09070020418800314188002041800043
:104864003141800003ff0700504188006141880006
:104874006a68ef000200370010c0b3006ae8b700ae
:1048840050408000f20f500004003e005040800071
:104894000000e800504088004500370012c8bf00ff
:1048a4000004e0004100320050418000614180007a
:1048b4003cf2070000007800404188000040eb0013
:1048c400d80207000a28ef0040418000cf80de00b4
:1048d40055f20700200798003107980002002000d5
:1048e40003f823002e009000be0090007df1070025
:1048f400008fbe0050418000614180000001be0075
:104904001e00be0076f107000004be005041800086
:10491400614180002e019000be01900070f10700fb
:104924001ac0b3000001be000800be001bf207005d
:104934000000e000010035000045eb000a04e0003f
:1049440003003200404180000000e800404188003c
:10495400404180000000e0000a003d00404180002a
:104964000000ea004041880040418000801f780038
:10497400d09b2900801f780065f30700e487570067
:104984000600370040418000801f7800709c290099
:10499400801f78005ef30700e48757001268ef0079
:1049a4000300370000000000010037000000000091
:1049b4004f0578004f04be000080fa000000060096
:1049c4000000fa001bfb0700f0428000e10f5000da
:1049d40006003a002000200000408800009d2900c5
:1049e4000cf307006028ef000200370040002000ad
:1049f400004088000080fa00000006000600fa006b
:104a0400889fbe008a9fbe000040eb00004f7800e4
:104a14006000b80010079800210798000043800048
:104a24008000eb009200200003002000820f500061
:104a3400838f5800ac003e0000600100a9003700dd
:104a44007a00370007003700310037005d00370077
:104a54006c0037007f0037008a003700950037006c
:104a6400780037005c080700fd0807000040eb00f1
:104a7400004f78000c003700000000001908070000
:104a84000004e000fdff3200af0807001e019000a3
:104a9400ae01900002004000838048001007980097
:104aa400210798001e4fe8001e4078000004e00033
:104ab400f1ff3d001e009000ae009000e00f50009a
:104ac400e08f580002003d00f007b0000180b00004
:104ad4004909dd004705de000a057100c78dde00c7
:104ae4001a0798002b0798001e019000ae01900051
:104af400a2408800b340880010c0b300c70007007c
:104b0400209d2900c3f207006028ef0076003700db
:104b14000040eb00004f78000c003700000000005c
:104b2400f00707000004e000fdff320086080700dc
:104b34001e019000ae0190000200400083804800f6
:104b440010079800210798001e4fe8001e407800c7
:104b54000004e000f1ff3d001e009000ae00900054
:104b6400e00f5000e08f580002003d00f007b00055
:104b74000180b000c909dd004704de00088471002b
:104b8400c78cde0018079800290798001e019000c2
:104b9400ae019000e2408800f3408800704080003d
:104ba40081408000c0408800d140880020c0b3000c
:104bb4009a000700209d290096f207006028ef0064
:104bc4004900370070408000814080000040780038
:104bd40020e8b70030c0b3009000070010c0b30055
:104be4001002070020c0b3000e02070030c0b3005b
:104bf4000c020700209d290086f207006028ef00c0
:104c04003900370070408000814080000040780007
:104c140021e8b70040c0b30080000700209d2900b0
:104c24007cf207006028ef002f00370050c0b3006b
:104c34007a000700209d290076f207006028ef0023
:104c440029003700209d290072f207006028ef0038
:104c5400250037007040800081408000804188003a
:104c64009141880060c0b3006c00070010c0b3001d
:104c7400ec010700209d290066f207006028ef0080
:104c840019003700704080008140800000007800e7
:104c94007041880070c0b3006000070020c0b300fa
:104ca400e0010700209d29005af207006028ef0068
:104cb4000d0037007040800081408000a0418800d2
:104cc400b141880080c0b3005400070030c0b30075
:104cd400d4010700209d29004ef207006028ef0050
:104ce40001003700000000004f05be004f04be0065
:104cf4000080fa00000006000400fa006000b8001a
:104d0400008fbe0010408000e10f50003b003200d5
:104d1400e10f50003b003100609320009040780088
:104d240000cdb30080c040006093200001487800ab
:104d3400a09320009040780000cdb30080c04000d4
:104d4400a093200001487800809320001040780050
:104d54000080fb0021032000810f5000120032006c
:104d640021032000810f500004003c0011032000a7
:104d7400810f500008003200170037003103200073
:104d8400810f50000c00320041032000810f5000bd
:104d94000d003200100037000058220001002000ee
:104da400008fbe000c00370000b02400010020007a
:104db400008fbe00080037000060290001002000b9
:104dc400008fbe000400370000202c0011002000da
:104dd400008fbe0000000000a093200090407800e7
:104de40060932000104078001e01be00bdfc070047
:104df400400020000040880003003700000000004d
:104e040001003700000000000080fa0000000600e6
:104e14000000fa000080fa00000006003a00fa00e0
:104e2400889fbe008a9fbe008c9fbe00004f9800e2
:104e34000040eb00004f78006000b80010079800b5
:104e4400210798000000eb00300798000e489000fe
:104e54000080fb00e40f5000d6003200e40f500045
:104e640007003c00e20f50004e003200e20f5000f9
:104e7400c8003c00e10f50000a0032006101370015
:104e8400e60f5000d8003200e60f5000d100350084
:104e9400e70f500014013200e80f500025013200e2
:104ea40058013700a2408000b340800012079800e8
:104eb400230798001e009000004f78009e40780061
:104ec40090002000a50807001e009000ae0090008e
:104ed4004809dd00c801de00830171005307980012
:104ee400c889de00630798005e019000ee0190001f
:104ef40012079800230798001e009000004f7800c6
:104f04009e40780080002000940807001e00900056
:104f1400ae0090004809dd00c801de008301710085
:104f240073079800c889de00030f98007e01900083
:104f34008e09900012079800230798001e00900025
:104f4400004f78009e40780070002000830807001e
:104f54001e009000ae0090004809dd00c801de008c
:104f640083017100130f9800c889de00230f980095
:104f74001e099000ae0990001207980023079800bc
:104f84001e009000004f78009e40780060002000d2
:104f940072080700a1cab300500020006f08070080
:104fa40018013700c2408000d340800012079800e7
:104fb400230798001e009000004f78009e40780060
:104fc400e0002000650807001e009000ae0090007d
:104fd4004809dd00c801de0083017100330f980029
:104fe400c889de00430f98003e099000ce09900066
:104ff40012079800230798001e009000004f7800c5
:105004009e407800d0002000540807001e00900045
:10501400ae0090004809dd00c801de008301710084
:10502400530f9800c889de00630f98005e09900052
:10503400ee09900012079800230798001e009000c4
:10504400004f78009e407800c0002000430807000d
:105054001e009000ae0090004809dd00c801de008b
:1050640083017100730f9800c889de00031798004c
:105074007e0990008e119000120798002307980073
:105084001e009000004f78009e407800b000200081
:1050940032080700e2408000f340800012079800c5
:1050a400230798001e009000004f78009e4078006f
:1050b40020012000290807001e009000ae00900087
:1050c4004809dd00c801de00830171001317980050
:1050d400c889de00231798001e119000ae119000bd
:1050e40012079800230798001e009000004f7800d4
:1050f4009e40780010012000180807001e00900050
:10510400ae0090004809dd00c801de008301710093
:1051140033179800c889de00431798003e119000a9
:10512400ce11900012079800230798001e009000eb
:10513400004f78009e407800000120000708070017
:105144001e009000ae0090004809dd00c801de009a
:105154008301710053179800c889de006317980013
:105164005e119000ee11900012079800230798003a
:105174001e009000004f78009e407800f000200050
:10518400f6070700a1cab300a0002000f307070038
:105194009c00370020c8bf008040780040012000f8
:1051a400ee070700a1cab30030012000eb07070097
:1051b4009400370021c8bf008040780060012000bf
:1051c400e6070700a1cab30050012000e307070067
:1051d4008c00370022c8bf00804078000000eb003c
:1051e400de0707008700370082418000934180007a
:1051f40012079800230798001e009000004f7800c3
:105204009e407800b0012000d40707001e009000e3
:10521400ae0090004809dd00c801de008301710082
:1052240073179800c889de00031f98007e11900050
:105234008e19900012079800230798001e00900012
:10524400004f78009e407800a0012000c3070700ab
:105254001e009000ae0090004809dd00c801de0089
:1052640083017100131f9800c889de00231f980072
:105274001e199000ae199000120798002307980099
:105284001e009000004f78009e407800900120009e
:10529400b20707001e009000ae0090004809dd0030
:1052a400c801de0083017100331f9800c889de0045
:1052b400431f98003e199000ce19900012079800e1
:1052c400230798001e009000004f78009e4078004d
:1052d40080012000a1070700a1cab30070012000cb
:1052e4009e0707004700370073418000330798008a
:1052f4003e009000004f78009e407800e0012000be
:10530400960707003e0090004800de003007980032
:105314003e009000004f78009e407800d0012000ad
:105324008e070700a1cab300c00120008b07070045
:1053340034003700a2418000b34180001207980076
:10534400230798001e009000004f78009e407800cc
:1053540030022000810707001e009000ae0090007c
:10536400c809dd004806de000c867100c88ede0028
:105374001c0798002d0798001e009000004f78002d
:105384009e40780020022000740707001e00900051
:10539400ae0090004809dd004805de000a057100f2
:1053a400c88dde001a0798002b0798001e00900095
:1053b400004f78009e407800100220006707070025
:1053c4001e009000ae009000c809dd004804de0015
:1053d40008847100c88cde0018079800290798001b
:1053e4001e009000004f78009e40780000022000cc
:1053f4005a070700a1cab300f001200057070700ad
:10540400000000004f06be004f05be004f04be0062
:105414000080fa00000006000000fa000080fa0094
:10542400000006000800fa00604798000040eb0006
:10543400204798006e4090000080fb00e10f500070
:1054440040003200e10f500003003c000000e00087
:105454000600320082003700e20f50005200320092
:10546400e30f5000650032007d00370040418000aa
:1054740000017800804280009142800000007800a2
:1054840000005100200798002e0090006101b9002f
:10549400a0428000b1428000800f5100818f5900ea
:1054a40020003400509d29005af00700414180003b
:1054b400c0428000808f50000400340041418000cd
:1054c400c0428000008f500003003700c1428000ba
:1054d40040418000008f50009e007800d042800040
:1054e400808f50000b0031005cc8bf000040e80012
:1054f4005ce8b7005cc8bf00e94f50000e003600fe
:1055040090c0b3005ce8b700909d290041f007000b
:10551400090037005c68ef00d09d29003df00700ca
:1055240005003700109e29003af007005c68ef0080
:10553400d09d290037f0070040418000c042880018
:10554400470037008041800091418000a0428800dc
:10555400b14288000040eb00204798000a00370061
:10556400a0428000b1428000a2002000030020007d
:10557400fbee0700a0428800b14288002e40900054
:105584000040e800204798002e4090008080fb00f7
:1055940020c8bf000080fb0063001000808f500013
:1055a400efff35002e00370070418000d0428800a4
:1055b4000040eb002047980008003700d1428000eb
