:040000009CEF00F081
:100008005E82FACF37F0FBCF38F0E9CF39F0EACF8C
:100018003AF0E1CF3BF0E2CF3CF0D9CF3DF0DACF78
:100028003EF0F3CF3FF0F4CF40F0F6CF41F0F7CFFA
:1000380042F0F8CF43F0F5CF44F05EC045F05FC022
:1000480046F060C047F061C048F0F2B6F2A003D0B5
:10005800F8EC0CF047D0F2AC45D0A3B8A4A809D06E
:1000680001D840D00500FA6E0001F351FD6EF4513D
:1000780035D0A3BAA4AA09D001D834D00500FA6EA5
:100088000001F151FD6EF25129D09DB89EA809D00A
:1000980001D828D00500FA6E0001E551FD6EE65141
:1000A8001DD09DBA9EAA09D001D81CD00500FA6EB1
:1000B8000001E351FD6EE45111D09DB29EA203D020
:1000C80089EC0CF00FD09DB69EA60CD001D80AD0B2
:1000D8000500FA6E0001E151FD6EE251FE6EFF6A05
:1000E800FA50120048C061F047C060F046C05FF0A7
:1000F80045C05EF044C0F5FF43C0F8FF42C0F7FFBB
:1001080041C0F6FF40C0F4FF3FC0F3FF3EC0DAFF36
:100118003DC0D9FF3CC0E2FF3BC0E1FF3AC0EAFF67
:1001280039C0E9FF38C0FBFF37C0FAFF5E92110003
:10013800C5EF09F0000E326E000E316E270E366ED6
:10014800100E356E5250010D600EF324D96E000E5C
:10015800F420DA6E0A0EDE18D8A41200000E306EF3
:100168000CD03050010D600EF324D96E000EF4202F
:10017800DA6EDF504CEC0DF0302A5250286E296AA6
:10018800010E2826000E292230502A6E2B6A28508C
:100198002A5C2B50800A2C6E2950800A2C58D8B023
:1001A800A3D0DFD72D0E00016319D8A437D0000ED5
:1001B800336E040E336401D02CD03350286E296A74
:1001C800040E2826000E2922600E2824D96E000E5F
:1001D8002920DA6EDF50D00F2F6E000E2D6E05D05D
:1001E80035503126365032222D2A2F502D5CD8A07A
:1001F800F7D735C001F036C002F0000E046E0A0EC3
:10020800036E0AEC09F001C035F002C036F0332A5B
:10021800D0D7316C321ED8B0322A32D0000E346EAC
:10022800040E346401D02CD03450286E296A030E91
:100238002826000E2922600E2824D96E000E2920B7
:10024800DA6EDF50D00F2F6E000E2E6E05D03550AF
:100258003126365032222E2A2F502E5CD8A0F7D7BE
:1002680035C001F036C002F0000E046E0A0E036EAF
:100278000AEC09F001C035F002C036F0342AD0D7B4
:100288004B50D8B43AD0000E4B6E31C019F032C082
:100298001AF0FBEC03F0010E4B6E2FD0A50E016E89
:1002A800000E026EC70E036EFF0E046EB0EC0BF06C
:1002B800A50E186E000E196E010E5BEC02F0A50E6D
:1002C800016E000E026EB70E036EFF0E046EB0ECE8
:1002D8000BF0A50E186E000E196E020E2BEC03F033
:1002E800000E64EC08F009D000016051430AD8B44C
:1002F800D5D7130AD8B456D7020A000E526E000E8C
:10030800516E12000001D96F000E0001DF6F000E60
:10031800DE6FDF5105E10F0EDE5DD8B0120001D0AF
:100328001200DE51D025D96EDF51D121DA6E200EB0
:10033800DE18D8B409D0DE51D025D96EDF51D121CD
:10034800DA6EDF50D8A408D0DE51D025D96EDF513F
:10035800D121DA6E260EDF6EDE51D025D96EDF513F
:10036800D121DA6E2F0EDF6411D0DE51D025D96E7F
:10037800DF51D121DA6E3A0EDF6008D0DE51D02588
:10038800D96EDF51D121DA6E300EDF5EDE51D02515
:10039800D96EDF51D121DA6E400EDF6408D0DE510C
:1003A800D025D96EDF51D121DA6E350EDF5E000E11
:1003B800DB6F000EDA6FDB5174E1080EDA5DD8B03E
:1003C80070D0000EDD6F000EDC6FDD5165E1080EA8
:1003D800DC5DD8B061D0FF0ED925B96FBA6BFF0EBE
:1003E800BA23000EBC6F090EBB6F52EC0CF0000173
:1003F800DC51B927DD51BA23010EB925D76F000E9C
:10040800BA21D86FD7C0C3F0D8C0C4F0DEC0D2F0CC
:10041800DFC0D3F0D890D237D337D890D237D3377C
:10042800D890D237D337DA51D227DB51D323010EF4
:10043800D225C56F000ED321C66FDE51D025D96EE7
:10044800DF51D121DA6EDF50D46FD451080D1D0E63
:10045800D56FFD0ED66FF350D527F450D623DA5159
:10046800D527DB51D623D5C0F6FFD6C0F7FFF86AEB
:100478000800F550B96FBA6BDCC0BBF0DDC0BCF04A
:1004880016EC0BF00001C76F040EC86F8DEC06F078
:100498000001DC4BDD2B99D7DA4BDB2BDB5101E17B
:1004A8008CD7DE4BDF2BDF5101E135D71200216EEF
:1004B800000E276E000E266E275005E10F0E265CF3
:1004C800D8B0120001D0120026501824D96E275037
:1004D8001920DA6E200EDE18D8B409D02650182458
:1004E800D96E27501920DA6EDF50D8A408D02650CC
:1004F8001824D96E27501920DA6E260EDF6E265082
:100508001824D96E27501920DA6E2F0EDF6411D007
:1005180026501824D96E27501920DA6E3A0EDF605B
:1005280008D026501824D96E27501920DA6E300EBC
:10053800DF5E26501824D96E27501920DA6E400E37
:10054800DF6408D026501824D96E27501920DA6E97
:10055800350EDF5E000E236E000E226E235071E111
:10056800080E225CD8B06DD0000E256E000E246EE9
:10057800255062E1080E245CD8B05ED0FF0E21241D
:10058800016E026AFF0E0222000E046E090E036E4F
:1005980066EC0CF02450012625500222010E01249D
:1005A8001F6E000E0220206E1FC00BF020C00CF042
:1005B80026C01AF027C01BF0D8901A361B36D890E0
:1005C8001A361B36D8901A361B3622501A26235054
:1005D8001B22010E1A240D6E000E1B200E6E2650D3
:1005E8001824D96E27501920DA6EDF501C6E1C5063
:1005F800080D1D0E1D6EFD0E1E6EF3501D26F450C7
:100608001E2222501D2623501E221DC0F6FF1EC08A
:10061800F7FFF86A0800F550016E026A24C003F07B
:1006280025C004F058EC0BF00F6E040E106E8AEC27
:1006380007F0244A252A9CD7224A232A235001E17D
:100648008FD7264A272A275001E138D71200216E72
:10065800000E276E000E266E275005E10F0E265C51
:10066800D8B0120001D0120026501824D96E275095
:100678001920DA6E200EDE18D8B409D026501824B6
:10068800D96E27501920DA6EDF50D8A408D026502A
:100698001824D96E27501920DA6E260EDF6E2650E0
:1006A8001824D96E27501920DA6E2F0EDF6411D066
:1006B80026501824D96E27501920DA6E3A0EDF60BA
:1006C80008D026501824D96E27501920DA6E300E1B
:1006D800DF5E26501824D96E27501920DA6E400E96
:1006E800DF6408D026501824D96E27501920DA6EF6
:1006F800350EDF5E000E236E000E226E235071E170
:10070800080E225CD8B06DD0000E256E000E246E47
:10071800255062E1080E245CD8B05ED0FF0E21247B
:10072800016E026AFF0E0222000E046E090E036EAD
:1007380066EC0CF02450012625500222010E0124FB
:100748001F6E000E0220206E1FC00BF020C00CF0A0
:1007580026C01AF027C01BF0D8901A361B36D8903E
:100768001A361B36D8901A361B3622501A262350B2
:100778001B22010E1A240D6E000E1B200E6E265031
:100788001824D96E27501920DA6EDF501C6E1C50C1
:10079800080D1D0E1D6EFD0E1E6EF3501D26F45025
:1007A8001E2222501D2623501E221DC0F6FF1EC0E9
:1007B800F7FFF86A0800F550016E026A24C003F0DA
:1007C80025C004F058EC0BF00F6E040E106E0FEC01
:1007D80007F0244A252A9CD7224A232A235001E1DC
:1007E8008FD7264A272A275001E138D7120020EE52
:1007F800F7F010EE20F0040EDBCFE3FFE806FCE292
:100808001AAE08D0010EFFEC05F0196C1A1ED8B00C
:100818001A2A03D0000EFFEC05F01ABE0ED0100EF7
:10082800195C270E1A58D8A008D0000E206E05D0E3
:10083800202AF00E1926D80E1A221ABE0CD0100E35
:10084800195C270E1A58D8A006D0F2D7212A180EFC
:100858001926FC0E1A221ABE06D0E80E195C030EE1
:100868001A58D8B0F3D70A0E2018D8A40BD02150A4
:10087800D8A408D00A0E216E05D0222A9C0E19266B
:10088800FF0E1A221ABE06D01A50F7E1640E195C40
:10089800D8B0F3D70A0E2118D8A40BD02250D8A468
:1008A80008D00A0E226E05D0232AF60E1926FF0E4E
:1008B8001A221ABE06D01A50F7E10A0E195CD8B0EF
:1008C800F3D719C024F0000E276E040E276401D058
:1008D8001200000E256E150E256401D055D0000EAD
:1008E800266E0F0E266401D04DD0280E25240B6EDF
:1008F8000C6A000E0C222750120D2650F326000E0B
:10090800F422080EF3240D6E000EF4200E6E27500C
:10091800010D200EF324D96E000EF420DA6EDF509C
:100928001B6E1B502C0D390E1C6EFB0E1D6EF350EA
:100938001C26F4501D222550020DF3501C26F4509D
:100948001D221CC0F6FF1DC0F7FFF86A0900F5CF8D
:1009580001F00A00F5CF02F026501E6E1F6A1E1E17
:100968001F1E1E4A1F2A0F0E1E24036E000E1F2074
:10097800046E58EC0BF00F6E050E106E8AEC07F043
:10098800262AAFD7252AA7D7272A9FD789681A0EDC
:100998000001BB6FF80EE82EFED7BB2FFCD700F086
:1009A80089904E0E0001BB6FEB0EE82EFED7BB2FD1
:1009B800FCD789804E0E0001BB6FEB0EE82EFED7E8
:1009C800BB2FFCD78992110E1FEC0DF0680E0001A9
:1009D800BB6FE40EE82EFED7BB2FFCD700F0D00E7D
:1009E8001FEC0DF0070E38EC0DF0420E38EC0DF050
:1009F800180E38EC0DF0D10E1FEC0DF0000E38EC8F
:100A08000DF0070E38EC0DF0100E38EC0DF0D20E8C
:100A18001FEC0DF0010E38EC0DF0000E38EC0DF067
:100A2800C00E1FEC0DF0100E38EC0DF03B0E38EC3C
:100A38000DF0000E38EC0DF0020E38EC0DF0110E32
:100A480038EC0DF0C50E1FEC0DF0030E38EC0DF070
:100A5800360E1FEC0DF00A0E38EC0DF03A0E1FECB6
:100A68000DF0550E38EC0DF02A0E1FEC0DF0000EAF
:100A780038EC0DF0000E38EC0DF0010E38EC0DF0EE
:100A88003F0E38EC0DF02B0E1FEC0DF0000E38EC7D
:100A98000DF0000E38EC0DF0010E38EC0DF0E00E04
:100AA80038EC0DF0030E0001BC6F700EBB6F5C0ECE
:100AB800E82EFED7BB2FFCD7BC2FFAD700F0290EA3
:100AC8001FEC0DF0898212000F0E126E000E136ECD
:100AD80084D0250E1818D8B404D018504CEC0DF05A
:100AE8007CD0000E146E0DC0F6FF0EC0F7FF0D4A45
:100AF8000E2AF86A0800F5CF18F01850000AD8B482
:100B08001200640AD8B403D00D0AD8A466D012C063
:100B1800D9FF13C0DAFFDECF16F0DDCF17F0020ED3
:100B28001226000E132217AE06D0030E1412166CEE
:100B3800171ED8B0172A010E186E050E1818D8B44B
:100B480015D01850020D9D0EF324F66EFF0EF420FA
:100B5800F76EF86A000EF8220900F550165C0900D5
:100B6800F5501758D8A002D0182AE7D714C011F0AA
:100B7800030E1116D8B403D02D0E4CEC0DF018C08E
:100B880015F027D01550020D9D0EF324F66EFF0EBA
:100B9800F420F76EF86A000EF8220900F5CF03F08A
:100BA8000A00F5CF04F016C001F017C002F07CEC83
:100BB8000AF001C008F002C009F0000E0B6E0A0E20
:100BC8000A6E37EC0BF00850300F186E18504CECCA
:100BD8000DF015061528D8A4D5D70DC0F6FF0EC000
:100BE800F7FF0D4A0E2AF86A0800F5CF18F01850DA
:100BF800D8B412006ED7186E000E0C6E320E0B6E43
:100C0800000E0E6E010E0D6E18C00FF0050E106E60
:100C18008AEC07F0000E0C6E320E0B6E000E0E6E94
:100C2800020E0D6E18C00FF0050E106E8AEC07F05C
:100C3800000E0C6E320E0B6E000E0E6E030E0D6E55
:100C480018C00FF0050E106E8AEC07F0000E0C6E3F
:100C5800320E0B6E000E0E6E040E0D6E18C00FF0E5
:100C6800050E106E8AEC07F0000E0C6E320E0B6E3D
:100C7800000E0E6E050E0D6E18C00FF0050E106EEC
:100C88008AEC07F0000E0C6E310E0B6E000E0E6E25
:100C9800010E0D6E18C00FF0050E106E8AEC07F0ED
:100CA800000E0C6E310E0B6E000E0E6E020E0D6EE7
:100CB80018C00FF0050E106E8AEC07F0000E0C6ECF
:100CC800310E0B6E000E0E6E030E0D6E18C00FF077
:100CD800050E106E8AEC07F0000E0C6E310E0B6ECE
:100CE800000E0E6E040E0D6E18C00FF0050E106E7D
:100CF8008AEC07F0000E0C6E310E0B6E000E0E6EB5
:100D0800050E0D6E18C00FF0050E106E8AEC07F078
:100D18001200C3C0B9F0C4C0BAF0C8C0BBF000012B
:100D2800BC6B52EC0CF0B9C0C3F0BAC0C4F0C5C07B
:100D3800B9F0C6C0BAF0C8C0BBF00001BC6B52EC39
:100D48000CF0B9C0C5F0BAC0C6F00001C851C8035C
:100D5800F3CFCDF08992C3C0BBF0C4C0BCF0C5C00E
:100D6800BDF0C6C0BEF0C851C325C96F000EC4216E
:100D7800CA6FFF0EC925BF6FFF0ECA21C06FC851C9
:100D8800C525CB6F000EC621CC6FFF0ECB25C16FDA
:100D9800FF0ECC21C26FCDEC0AF084EC0DF031D0FF
:100DA800000E0001CF6F000ECE6F09D0000E38EC98
:100DB8000DF0000E38EC0DF00001CE4BCF2BCD51CD
:100DC800C96FCA6BC951CE5DCA51CF59D8B021D0AD
:100DD800EDD7000ECF6F000ECE6F09D0FF0E38ECA6
:100DE8000DF0FF0E38EC0DF00001CE4BCF2BCD519E
:100DF800C96FCA6BC951CE5DCA51CF59D8B009D095
:100E0800EDD70001C751000AD8B4E3D7010AD8B416
:100E1800C7D7898212000BC001F00CC002F010C0C5
:100E280003F0046A66EC0CF001C00BF002C00CF091
:100E38000DC001F00EC002F010C003F0046A66ECA9
:100E48000CF001C00DF002C00EF010501002F3CFEC
:100E580015F089920BC003F00CC004F00DC005F02A
:100E68000EC006F010500B24116E000E0C20126EEE
:100E7800FF0E1124076EFF0E1220086E10500D246D
:100E8800136E000E0E20146EFF0E1324096EFF0E53
:100E980014200A6E77EC0BF088EC0DF02ED0000EC3
:100EA800176E000E166E08D0F80E46EC0DF0000E08
:100EB80046EC0DF0164A172A1550116E126A115099
:100EC800165C12501758D8B01FD0EED7000E176E08
:100ED800000E166E08D0FF0E46EC0DF0FF0E46EC25
:100EE8000DF0164A172A1550116E126A1150165C29
:100EF80012501758D8B008D0EED70F50000AD8B4FF
:100F0800E5D7010AD8B4CBD7898212000BC001F00B
:100F18000CC002F010C003F0046A66EC0CF001C0CB
:100F28000BF002C00CF00DC001F00EC002F010C0B2
:100F380003F0046A66EC0CF001C00DF002C00EF07C
:100F480010501002F3CF15F089920BC003F00CC0BB
:100F580004F00DC005F00EC006F010500B24116E01
:100F6800000E0C20126EFF0E1124076EFF0E1220C9
:100F7800086E10500D24136E000E0E20146EFF0E16
:100F88001324096EFF0E14200A6E77EC0BF088EC20
:100F98000DF02ED0000E176E000E166E08D0000E43
:100FA80046EC0DF0000E46EC0DF0164A172A1550C7
:100FB800116E126A1150165C12501758D8B01FD013
:100FC800EED7000E176E000E166E08D0FF0E46EC18
:100FD8000DF0FF0E46EC0DF0164A172A1550116E4B
:100FE800126A1150165C12501758D8B008D0EED7B4
:100FF8000F50000AD8B4E5D7010AD8B4CBD78982F4
:1010080012000001D06F000E0001C46F3E0EC36FC6
:10101800D051120DF31EF41EF34AF42A600EF32485
:10102800C56F000EF420C66F010EC76F050EC86F9E
:101038008DEC06F0000E0001C46F3D0EC36FD05159
:10104800120DF31EF41EF34AF42A600EF324C56F42
:10105800000EF420C66F010EC76F050EC86F8DEC29
:1010680006F0000E0001C46F3E0EC36FD051120D82
:10107800F31EF41EF34AF42A610EF324C56F000E22
:10108800F420C66F010EC76F050EC86F8DEC06F011
:10109800000E0001C46F3D0EC36FD051120DF31E38
:1010A800F41EF34AF42A610EF324C56F000EF420EF
:1010B800C66F010EC76F050EC86F8DEC06F01200E3
:1010C800186E000E0C6E3E0E0B6E1850120DF31EAD
:1010D800F41EF34AF42A600EF3240D6E000EF42079
:1010E8000E6E010E0F6E050E106E8AEC07F0000EE4
:1010F8000C6E3D0E0B6E1850120DF31EF41EF34AC3
:10110800F42A600EF3240D6E000EF4200E6E010E0C
:101118000F6E050E106E8AEC07F0000E0C6E3E0E78
:101128000B6E1850120DF31EF41EF34AF42A610ECA
:10113800F3240D6E000EF4200E6E010E0F6E050ED8
:10114800106E8AEC07F0000E0C6E3D0E0B6E1850F8
:10115800120DF31EF41EF34AF42A610EF3240D6EE9
:10116800000EF4200E6E010E0F6E050E106E8AEC46
:1011780007F01200E9EC0CF0060E0001E06F300EEB
:10118800E82EFED7E02FFCD700F03C0E0001B96F27
:10119800010EBA6F52EC0DF07A0E0001B96F180EFD
:1011A800BA6F75EC0DF04A0E0001B96F150EBA6FE3
:1011B8006BEC0DF0F28EF28CCAEC04F0FF0E00011D
:1011C800C46FC3698AEC09F0A50E0001B96F000E5F
:1011D800BA6FA70EBB6FFF0EBC6F96EC0BF0A50E97
:1011E8000001D06F000ED16F010E86EC01F0010EE8
:1011F80005EC08F0020E31EC0DF0520E31EC0DF05A
:101208000A0E31EC0DF0010E4B6EFFD7000E066E84
:1012180004AE06D0036C041ED8B0042A010E066E74
:1012280002AE06D0016C021ED8B0022A010E061AC0
:10123800000E086E000E076E03500410D8B41CD0C0
:10124800010E056E04D0D89003360436052A04AE84
:10125800FAD7D890073608360350015C0450025874
:10126800D8A005D00350015E0450025A0780D890D8
:1012780004320332052EEDD70650D8B404D0076CDB
:10128800081ED8B0082A07C001F008C002F01200F2
:10129800000E8D6E000E8C6E000E896E000E8A6E2A
:1012A800000E8B6E070E966E000E926E000E936EF9
:1012B8009F0E946EB70E956E000E0F015D6F000EB7
:1012C8005C6F000E5B6FF18E5A895A8B5A8D5A8F5C
:1012D8002C0E0001B96F1B0EBA6F66EC0DF02A0ECA
:1012E8000001B96F1B0EBA6F61EC0DF0280E0001FA
:1012F800B96F1B0EBA6F5CEC0DF0260E0001B96FCA
:101308001B0EBA6F57EC0DF0F28612008992000E90
:101318000001BC6F000EBB6F000EBE6F000EBD6FEC
:10132800010EC06F3F0EBF6F010EC26FDF0EC16F9F
:10133800CDEC0AF084EC0DF0000E0001C66F000E33
:10134800C56F17D0000EC86F000EC76FE00EC75DDF
:10135800010EC859D8B00BD0C45138EC0DF00001BB
:10136800C35138EC0DF00001C74BC82BEFD7C54B64
:10137800C62B400EC55D010EC659D8A0E3D7898299
:101388001200180EF66E1B0EF76E000EF86E00EEC9
:10139800F7F010EE05F00900F5CFEEFFE550E1504B
:1013A800FAE1220EF66E1B0EF76E000EF86E0900BB
:1013B800F5CF5CF00900F5CF5DF001EE00F00F0EFF
:1013C800EE6AE806FDE100EE60F0590EEE6AE80606
:1013D800FDE100EE49F0130EEE6AE806FDE15E90CD
:1013E8005E920001BEEF08F0A39AF20E0001B96FF9
:1013F800170EBA6F75EC0DF0A398920E0001B96F35
:10140800170EBA6F70EC0DF0080EB96E900EA66E3E
:10141800260EBA6EA00E7B6E010E7C6E000E0001C9
:10142800A46F000EA36F080EF66F000EA26F000ED9
:101438005B6E000E5A6EA38A02D07ACFBBF0A4BAB4
:10144800FCD7A698A6881200196E1BD0D70E0D6E71
:10145800FF0E0E6E68EC05F01200FB0E0D6EFF0E0F
:101468000E6E4DC00FF0106A68EC05F01200E50E24
:101478000D6EFF0E0E6E68EC05F01200AA0EC96E16
:1014880012001950000AD8B4E1D7010AD8B4EFD72E
:10149800030AD8B4E2D7010AD8A41200EFD79D9A5C
:1014A800200E0001B96F180EBA6F7FEC0DF09D98F1
:1014B800C20E0001B96F170EBA6F7AEC0DF0080E64
:1014C800A76E900EAB6E240EAC6EA00EAF6E010E22
:1014D8007D6E000E0001A16F000EA06F080EF56F63
:1014E800000E9F6F000E596E000E586E9D8A1200F6
:1014F800000E066E000E056E03500410D8B41CD002
:10150800010E076E04D0D89003360436072A04AEBD
:10151800FAD7D890053606360350015C04500258B5
:10152800D8A005D00350015E0450025A0580D89017
:1015380004320332072EEDD705C001F006C002F0D1
:101548001200F20E0D6EFF0E0E6E68EC05F0550ED1
:101558001A6E9E96C9CF1AF0C7A4C7BA04D0000E57
:1015680028EC0AF014D0C7A40BD0C7BAC5AC04D075
:10157800030E28EC0AF00BD0010E28EC0AF007D075
:10158800C7AA05D01AC04DF0020E28EC0AF0C6888A
:1015980012002A0E1FEC0DF00001BC5138EC0DF0C2
:1015A8000001BB5138EC0DF00001C05138EC0DF0D2
:1015B8000001BF5138EC0DF02B0E1FEC0DF00001AF
:1015C800BE5138EC0DF00001BD5138EC0DF00001B2
:1015D800C25138EC0DF00001C15138EC0DF0120089
:1015E800550E026E9E96C9CF02F0C7A4C7BA04D0A2
:1015F800000E06EC0DF014D0C7A40BD0C7BAC5ACCA
:1016080004D0030E06EC0DF00BD0010E06EC0DF025
:1016180007D0C7AA05D002C05DF0020E06EC0DF097
:10162800C6881200BBC0BDF0010E0001BE6F000EDF
:10163800BF6FBD2B03D0D890BE37BF37BD2FFBD7A8
:10164800BEC0BBF0BFC0BCF00001BB51B915BD6F37
:10165800BC51BA15BE6FBD51BE11D8B402D0010E2F
:101668001200000E12000A500B10D8B418D0010E48
:101678000C6E04D0D8900A360B360C2A0BAEFAD76B
:101688000A50085C0B500958D8A004D00A50085ECC
:101698000B50095AD8900B320A320C2EF1D708C0D9
:1016A80008F009C009F0120003C005F0010E066E2B
:1016B800000E076E052A03D0D89006360736052E89
:1016C800FBD706C003F007C004F003500114056EF1
:1016D80004500214066E05500610D8B402D0010E4C
:1016E8001200000E12002A0E3FEC0DF0045046ECDA
:1016F8000DF0035046EC0DF0085046EC0DF0075085
:1017080046EC0DF02B0E3FEC0DF0065046EC0DF0BC
:10171800055046EC0DF00A5046EC0DF0095046EC29
:101728000DF01200B9C0BDF0BAC0BEF005D000017E
:10173800BD4BBE2BBB4BBC2BBBC0F6FFBCC0F7FFE1
:10174800F86ABDC0D9FFBEC0DAFF0800F5CFDFFFD9
:10175800DF50D8B41200EBD701C005F002C006F084
:1017680004D0054A062A034A042A03C0F6FF04C027
:10177800F7FFF86A05C0D9FF06C0DAFF0800F5CF01
:10178800DFFFDF50D8B41200ECD7080E0001F66175
:1017980012D0A351010D870EF324D96E000EF42048
:1017A800DA6EDF50796EA32B070EA36502D0000E08
:1017B800A36FF62B1200A3981200080E0001F56122
:1017C80012D0A051010D770EF324D96E000EF4202B
:1017D800DA6EDF50AD6EA02B070EA06502D0000EAA
:1017E800A06FF52B12009D981200A6A202D0A69811
:1017F800A6880001A251010D7F0EF324D96E000EB8
:10180800F420DA6E7ACFDFFFA22B070EA26502D092
:10181800000EA26F5A2A1200ABA202D0AB98AB8876
:1018280000019F51010D6F0EF324D96E000EF420B4
:10183800DA6EAECFDFFF9F2B070E9F6502D0000E3A
:101848009F6F582A1200000EC76E090EC66E7F0ED3
:10185800C86E260EC66E000EC56E220EC86EE80E45
:101868000001B96F150EBA6F6BEC0DF09E969D8650
:101878001200A6A202D0A698A688A6B412000BD081
:101888007ACF53F052C001F0535013EC0DF00A0E0A
:101898005318D8A4522AA4AA1200F2D70001B951A9
:1018A800BB03F3CFBDF0F4CFBEF0B951BC03F35086
:1018B800BE27BA51BB03F350BE27BDC0B9F0BEC0A6
:1018C800BAF0120001500302F3CF05F0F4CF06F08E
:1018D80001500402F350062602500302F350062674
:1018E80005C001F006C002F012000A0ECB6E000E11
:1018F800CC6E9E929D82240E0001B96F1B0EBA6FAA
:1019080052EC0DF04D0ECA6E12009E92494A4A2AB8
:101918004A5004E10A0E495CD8A0120099EC0CF078
:10192800000E4A6E000E496E12000001E751E811E0
:10193800D8B4120001D812000500FA6EE751FD6E06
:10194800E851FE6EFF6AFA5012000001E951EA11EF
:10195800D8B4120001D812000500FA6EE951FD6EE4
:10196800EA51FE6EFF6AFA5012000001EB51EC11C9
:10197800D8B4120001D812000500FA6EEB51FD6EC2
:10198800EC51FE6EFF6AFA5012000001ED51EE11A3
:10199800D8B4120001D812000500FA6EED51FD6EA0
:1019A800EE51FE6EFF6AFA5012000001EF51F0117D
:1019B800D8B4120001D812000500FA6EEF51FD6E7E
:1019C800F051FE6EFF6AFA5012008FEC0DF04CECED
:1019D80009F028EC0DF027EC0CF079EC0CF053EC46
:1019E8000AF0F8EC09F0120081B8D9EC0CF081BAD1
:1019F800C9EC0CF081BCB9EC0CF081BEA9EC0CF080
:101A0800F2901200016E0150000AD8B41200010AC7
:101A1800D8B41200030AD8B41200010A1200026EE8
:101A28000150010D600EF324D96E000EF420DA6E19
:101A380002C0DFFF12000001BA6F89940001BA5199
:101A480038EC0DF089841200700ED36E000ED26E41
:101A5800000E9B6E000E9A6E12000001B96FA4A8CA
:101A6800FED7B9C079FF12000001B96FB9C08AFF6B
:101A7800899689861200026E8994025046EC0DF010
:101A880089841200016E01C08AFF89968986120036
:101A9800016EA4A8FED701C079FF1200B9C0E7F013
:101AA800BAC0E8F01200B9C0E9F0BAC0EAF0120012
:101AB800B9C0EBF0BAC0ECF01200B9C0EDF0BAC092
:101AC800EEF01200B9C0EFF0BAC0F0F01200B9C0E1
:101AD800E1F0BAC0E2F01200B9C0F3F0BAC0F4F015
:101AE8001200B9C0F1F0BAC0F2F01200B9C0E5F0C6
:101AF800BAC0E6F01200B9C0E3F0BAC0E4F01200D0
:101B08002C0E1FEC0DF012002C0E3FEC0DF0120005
:051B18000A00000000BE
:101B1E00D09E120001551200120012001200120087
:10FB380000E007F00F08100C300C300C300C300CC3
:10FB4800300C300C300C300C300C300C300C300CCD
:10FB5800300C300C300C300810F00FE007800780B4
:10FB6800078001800180018001800180018001807F
:10FB78000180018001800180018001800180018075
:10FB88000180018001F81FF81FE007F00F08100C32
:10FB9800000600060006000C001C0038007000E09B
:10FBA80000C00180030007000E001C001800300090
:10FBB80030FE3FFE3FF01FF83F1C600C000C000CAD
:10FBC800000C000C000C001800F007F00718000CDF
:10FBD800000C000C000C000C000C001C60F83FF03E
:10FBE8001F00000C001C003C006C00CC008C010CB9
:10FBF800030C060C0C0C180C30FE3FFE3F0C000CDE
:10FC0800000C000C000C000C000C000C00F87FF835
:10FC18007F006000600060006000600060006000BD
:10FC280060F07FF87F0C000C000C000C000C000C3E
:10FC3800000C000C00F87FF07FF00FF01F00300080
:10FC480060006000600060006000600060F06FF8B5
:10FC58007F0C700C600C600C600C600C600C600C0D
:10FC680060F83FF01FFC3FFC3F0C000C0018001828
:10FC7800003000300060006000C000C000800180DB
:10FC8800010003000300060006000C000C00180029
:10FC980018E007F00F08100C300C300C300C300C4A
:10FCA800300C301818F00FF00F18180C300C300CFE
:10FCB800300C300C300C300810F00FE007F807FC5F
:10FCC8001F0C180630063006300630063006300E97
:10FCD80018FE1FF6070600060006000600060006C6
:10FCE800000C001800F00FE00F00000000000000FA
:10FCF80000000000000000000000000000000000FC
:10FD080000000000000000000000000000000000EB
:10FD18000000000000007EA19189857E000000821D
:10FD2800FF8000000000C2A19189860000000081C8
:10FD380081899563000000181412FF1000008F8954
:10FD48008989897000007E8989898970000001C1CC
:10FD580031090503000076898989760000000E9133
:10FD680091917E0000000000CCCC0000000000480B
:10FD7800484848000000FC121112FC000000FF89EE
:10FD88008989760000007E81818181000000FF81E1
:10FD98008181817E0000FF89898981000000FF0937
:10FDA8000909010000007E819191F0000000FF1018
:10FDB8001010FF0000000081FF8100000000418159
:10FDC8007F0100000000FF18244280000000FF802F
:10FDD8008080800000FF0204080402FF0000FF0684
:10FDE800081060FF00007E818181817E0000FF1184
:10FDF80011110E0000007E81A1C17E000000FF31BC
:10FE080031518E0000008689898971000001010145
:10FE1800FF01010100007F808080807F00003F405B
:10FE28008080403F001E60C03030C0601E008448A3
:10FE38003030488400010204F80402010000C1A126
:10FE48009189858300000000000000000000000088
:10FE5800000000000000000000000000000000009A
:10FE6800000000000000000000000000001C222626
:10FE78002A32221C000818080808081C0018240444
:10FE88000810203C003C02021C02023C00040C1436
:10FE9800243E0404003E20203C02023C001C20209A
:10FEA8003C22221C003E020408102020001C2222B2
:10FEB8001C22221C001C22221E02021C00081422E2
:10FEC8003E222222003C22223C22223C001E2020EC
:10FED8002020201E003C22222222223C003E2020FC
:10FEE8003C20203E003E20203C202020001C2020DA
:10FEF8003E22221C002222223E222222001C080826
:10FF08000808081C003E08080808281800202428AB
:10FF180030282422002020202020203E0022362ABB
:10FF280022222222002222322A262222001C2222D7
:10FF38002222221C003C22223C202020001C2222BB
:10FF480022221C02003C22223C282422001E2020BF
:10FF58001C02023C003E0808080808080022222269
:10FF68002222221C00222222222214080000000041
:10FF7800000000000000000000000000002214083B
:10FF880008080808003E02040810203E000000008F
:10FF9800000000000001000A006400E80310275078
:10FFA80045534F20202020202020202020200052B0
:10FFB80045515545524944412020202020200043E6
:10FFC800414C4942524143494F4E2020202000577E
:10FFD80072697465206F75747075740A0057726958
:10FFE800746520696E7075740A004932432069731C
:07FFF800720A0025640000FD
:020000040020DA
:08000000FFFFFFFFFFFFFFFF00
:020000040030CA
:0E00000015087F7CFF8991FF0FC00FE00F40B5
:00000001FF
