:0400000096EF04F083
:100008005F82FACF65F0FBCF66F0E9CF67F0EACF01
:1000180068F0E1CF69F0E2CF6AF0D9CF6BF0DACFC0
:100028006CF0F3CF6DF0F4CF6EF0F6CF6FF0F7CF42
:1000380070F0F8CF71F0F5CF72F05FC073F060C068
:1000480074F061C075F062C076F09EA265D29E928F
:10005800000E0001846F000E8E6F000E8D6FF30E80
:10006800AB5D010EAC59D8B003D0AB4BAC2B04D070
:10007800000EAC6F000EAB6FEDEC25F00009D8B4A4
:1000880015D0A90EF66EFF0EF76E0800F5500001A8
:10009800B16102D0B12B39D2B951D8B436D2000EE1
:1000A800B96FF0EC0EF00001BA6F2FD2000E00010C
:1000B800B16FB951D8A429D23A0EBA610ED02F0E19
:1000C800BA650BD0AE51010DA50EF324D96E010E01
:1000D800F420DA6EBAC0DFFFAE2B2A0EBA19D8A404
:1000E80014D0000E856F0E0E856501D00CD0855199
:1000F800010DA50EF324D96E010EF420DA6E200E40
:10010800DF6E852BF0D7000EAE6FB551D8A418D08E
:10011800430EBA19D8B414D0000E866F0E0E866539
:1001280001D00CD08651010DA50EF324D96E010E15
:10013800F420DA6E200EDF6E862BF0D7000EAE6F3D
:10014800430EBA19D8A409D0020EACEC25F0E60E7D
:100158000D6EFF0E0E6EC5EC11F0B50E4E6E000E54
:100168004F6ECC0E506E000E516EBAC052F0A50EF6
:10017800536E010E546E98EC04F00001B06F150E2A
:10018800B019D8A409D0020EACEC25F0DC0E0D6E27
:10019800FF0E0E6EC5EC11F0160E0001B019D8A4B2
:1001A8000ED0CC05B26F020EACEC25F0BB0E0D6E76
:1001B800FF0E0E6EB2C00FF0106AC5EC11F0170EEC
:1001C8000001B019D8A436D0020EACEC25F0F50E1B
:1001D8000D6EFF0E0E6EC5EC11F0000E00017C6F67
:1001E8000DD07C51010DA50EF324D96E010EF4201B
:1001F800DA6EDF50ACEC25F000017C2BAE517C5D53
:10020800D8A0EFD70A0EACEC25F0000E0001876FDE
:100218000E0E876501D00CD08751010DA50EF32471
:10022800D96E010EF420DA6E200EDF6E872BF0D720
:10023800000EAE6F180EB019D8A40CD0020EACEC9C
:1002480025F0C10E0D6EFF0E0E6ECCC00FF0106AB9
:10025800C5EC11F0190E0001B019D8A48FD0020E08
:10026800ACEC25F0F20E0D6EFF0E0E6EC5EC11F023
:10027800000E00017D6F0DD07D51010DA50EF324F8
:10028800D96E010EF420DA6EDF50ACEC25F00001D7
:100298007D2BAE517D5DD8A0EFD70A0EACEC25F0D2
:1002A800000E0101DD6F000EDC6F000E00017E6F95
:1002B8002BD0DCC101F0DDC102F0000E046E0A0E85
:1002C800036E78EC25F001C0DCF102C0DDF1D00E40
:1002D8000001606FFF0E616F7E51010DA50EF324C2
:1002E800D96E010EF420DA6EDF50626F636B6051D5
:1002F80062276151632362510101DC2700016351C8
:100308000101DD2300017E2BAE517E5DD8A0D1D73F
:10031800DCC18DF0DDC18EF08DC084F084C001F0A9
:10032800010E026E020E34EC24F000018E518D6F26
:100338008E6B8DC084F084C001F0010E026E010E38
:1003480034EC24F0AA0E016E010E026E000E34EC9D
:1003580024F0000E0001886F0E0E886501D00CD0C5
:100368008851010DA50EF324D96E010EF420DA6E22
:10037800200EDF6E882BF0D7000EAE6F1A0EB01964
:10038800D8A436D0020EACEC25F0FB0E0D6EFF0E95
:100398000E6EC5EC11F0000E00017F6F0DD07F517D
:1003A800010DA50EF324D96E010EF420DA6EDF508C
:1003B800ACEC25F000017F2BAE517F5DD8A0EFD7C4
:1003C8000A0EACEC25F0000E0001896F0E0E89654F
:1003D80001D00CD08951010DA50EF324D96E010E60
:1003E800F420DA6E200EDF6E892BF0D7000EAE6F88
:1003F8001B0EB019D8A436D0020EACEC25F0F80EBE
:100408000D6EFF0E0E6EC5EC11F0000E0001806F30
:100418000DD08051010DA50EF324D96E010EF420E4
:10042800DA6EDF50ACEC25F00001802BAE51805D18
:10043800D8A0EFD70A0EACEC25F0000E00018A6FA9
:100448000E0E8A6501D00CD08A51010DA50EF32439
:10045800D96E010EF420DA6E200EDF6E8A2BF0D7EB
:10046800000EAE6F1F0EB519D8A40FD0B051D8B476
:100478000CD0020EACEC25F0D70E0D6EFF0E0E6EF2
:10048800CCC00FF0106AC5EC11F0B5C001F0026ADB
:10049800000E046E0A0E036E63EC20F0030E0118C2
:1004A8000210D8A41FD00001B051D8B41BD0020E3E
:1004B800CC19D8A409D0020EACEC25F0D20E0D6EE2
:1004C800FF0E0E6EC5EC11F0030E0001CC19D8A476
:1004D80009D0020EACEC25F0CD0E0D6EFF0E0E6E9F
:1004E800C5EC11F00001B551D8A40CD0020EACEC4B
:1004F80025F0E00E0D6EFF0E0E6EC5EC11F0010E2C
:100508008EEC1DF0010E0001B96FB551D8B402D0C0
:10051800000E01D0010EAF6F9EAA25D0ABA204D069
:10052800AB9800F0AB881FD0ABA406D0AECFB4F028
:10053800000E0001B46F17D00001B451010DB50EC3
:10054800F324D96E010EF420DA6EAECFDFFFB4517A
:10055800010DB50EF324D96E010EF420DA6E0A0EE1
:10056800DE18D8A4B42BA4AAB7D1000E0001926F4C
:10057800000E916F270E906F100E8F6F000E786F20
:10058800000E776F000E836F000E826FA6A204D054
:10059800A69800F0A68812D0A6A405D07ACFB3F00A
:1005A800000EB36F0BD0B351010D9A0EF324D96E20
:1005B800000EF420DA6E7ACFDFFFB32BFF0E0001B6
:1005C800606FFF0E616FB351626F636B605162279A
:1005D800615163239A0E6225D96E000E6321DA6E8B
:1005E8000A0EDE18D8B468D177D1010E4C6EB55119
:1005F80023EC19F06ED100019D51D00FB26F69D173
:100608009B513A0AD8B4F7D7710AD8B4EED761D15A
:10061800480E9C19D8A402D08B885BD18B9859D1ED
:10062800480E9C19D8A402D08B8A53D18B9A51D1E9
:10063800480E9C19D8A402D0898C4BD1899C49D1E9
:10064800020EACEC25F0E90E0D6EFF0E0E6EC5EC39
:1006580011F083A804D0480EACEC25F003D04C0E62
:10066800ACEC25F00A0EACEC25F033D1020EACEC64
:1006780025F0EC0E0D6EFF0E0E6EC5EC11F083AA80
:1006880004D0480EACEC25F003D04C0EACEC25F0B1
:100698000A0EACEC25F01DD1020EACEC25F0EF0EE5
:1006A8000D6EFF0E0E6EC5EC11F080AE04D0480E34
:1006B800ACEC25F003D04C0EACEC25F00A0EACECFB
:1006C80025F007D100019B51310AD8B4A1D7030AFC
:1006D800D8B4A6D7010AD8B4ABD7070AD8B4B0D7CC
:1006E800010AD8B4C3D7030AD8B4D6D7F2D02D0E8E
:1006F8009D19D8A438D0000E8B6F040E8B6501D0DD
:100708002DD08B51606F616B040E6027000E612342
:100718009A0E6025D96E000E6121DA6EDF50D00F77
:10072800816F000E796F05D08F51912790519223D8
:10073800792B8151795DD8A0F7D78FC001F090C08F
:1007480002F0000E046E0A0E036E63EC20F001C086
:100758008FF002C090F000018B2BCFD7916D921FC4
:10076800D8B0922B33D0000E8C6F040E8C6501D05C
:100778002DD08C51606F616B030E6027000E6123D2
:100788009A0E6025D96E000E6121DA6EDF50D00F07
:10079800816F000E7A6F05D08F5191279051922367
:1007A8007A2B81517A5DD8A0F7D78FC001F090C01D
:1007B80002F0000E046E0A0E036E63EC20F001C016
:1007C8008FF002C090F000018C2BCFD791C077F04A
:1007D80092C078F0AF51D8B44BD0000EAF6FB25181
:1007E80017EC1FF0DCC182F0DDC183F0000E0001C0
:1007F8007B6F10D082C001F083C002F0000E046E3F
:100808000A0E036E54EC22F001C082F002C083F09D
:1008180000017B2BB251606F616B601F611F604BE1
:10082800612B030E6027000E61237B51626F636B9F
:100838006051625D6351800A646F6151800A645936
:10084800D8A0D8D78251915F8351925B91C019F09B
:1008580092C01AF0E8EC12F0020EACEC25F0410E52
:10086800ACEC25F00A0EACEC25F0010E0001AF6FE0
:1008780077517811D8B402D08BAA2BD0000EBB6F59
:1008880092BF04D02B0EACEC25F008D00001916D7E
:10089800921FD8B0922B2D0EACEC25F0C70E0D6E22
:1008A800FF0E0E6E91C00FF092C010F0C5EC11F063
:1008B800010E0001BB6F0DD09A51430AD8B409D07C
:1008C800070AD8B49DD60D0AD8B4FCD6190AD8B4EC
:1008D8000ED7000E0001B36F76C062F075C061F0EC
:1008E80074C060F073C05FF072C0F5FF71C0F8FFAC
:1008F80070C0F7FF6FC0F6FF6EC0F4FF6DC0F3FF66
:100908006CC0DAFF6BC0D9FF6AC0E2FF69C0E1FFC3
:1009180068C0EAFF67C0E9FF66C0FBFF65C0FAFF71
:100928005F92110081EF17F0000E566E000E596E9F
:100938009FEF0AF050C0D9FF51C0DAFF010EDF6403
:100948000DD04EC0D9FF4FC0DAFFDF50D8B406D063
:1009580050C0D9FF51C0DAFFDF0614D04EC0D9FF0E
:100968004FC0DAFFDE04D8A40DD050C0D9FF51C063
:10097800DAFFDE04D8A406D050C0D9FF51C0DAFF90
:10098800060EDF6E50C0D9FF51C0DAFFDF504C6E43
:100998004EC0D9FF4FC0DAFFDF5023EC19F0B5EF96
:1009A8000AF050C0D9FF51C0DAFF060E17D050C068
:1009B800D9FF51C0DAFF070E11D050C0D9FF51C07E
:1009C800DAFF020E0BD050C0D9FF51C0DAFF040E77
:1009D80005D050C0D9FF51C0DAFF030EDF6041D007
:1009E80050C0D9FF51C0DAFFDF2A3BD050C0D9FF31
:1009F80051C0DAFF040EDF6034D050C0D9FF51C0B7
:100A0800DAFFDF2A50C0D9FF51C0DAFFDF500001FA
:100A1800B66F27D04EC0D9FF4FC0DAFFDF50000AAB
:100A2800D8B41FD0010AD8B4BCD7030AD8B4BFD7EA
:100A3800010AD8B4CED7070AD8B4B9D7010AD8B4AE
:100A4800C8D7030AD8B4B9D7130AD8B40AD0030A46
:100A5800D8B4B9D70E0AD8B4BCD7070AD8B4C6D701
:100A6800340A50C0D9FF51C0DAFFDF504C6E4EC077
:100A7800D9FF4FC0DAFFDF5023EC19F0B5EF0AF0C9
:100A88004EC0D9FF4FC0DAFF020EDF6E50C0D9FF4B
:100A980051C0DAFF010EDF6E010E4C6E4EC0D9FF59
:100AA8004FC0DAFFDF5023EC19F0FFD24EC0D9FF58
:100AB8004FC0DAFF030EDF6E50C0D9FF51C0DAFF16
:100AC800010EDF6E010E4C6E4EC0D9FF4FC0DAFF2B
:100AD800DF5023EC19F0E9D24EC0D9FF4FC0DAFF3E
:100AE800040EDF6E50C0D9FF51C0DAFF010EDF6E71
:100AF800010E4C6E4EC0D9FF4FC0DAFFDF5023EC19
:100B080019F0D3D24EC0D9FF4FC0DAFF050EDF6E01
:100B180050C0D9FF51C0DAFF010EDF6E010E4C6ED6
:100B28004EC0D9FF4FC0DAFFDF5023EC19F0BDD219
:100B38004EC0D9FF4FC0DAFF060EDF6E50C0D9FF96
:100B480051C0DAFF010EDF6E010E4C6E4EC0D9FFA8
:100B58004FC0DAFFDF5023EC19F0A7D2F80E0C6E65
:100B6800000E0B6E95EC21F0070E0C6EE00E0B6E6E
:100B780095EC21F0000E0C6E1F0E0B6E95EC21F01B
:100B8800FF0E0C6E0B6895EC21F04EC0D9FF4FC0DC
:100B9800DAFF000EDF6E50C0D9FF51C0DAFF010E38
:100BA800DF6E000E8DD150C0D9FF51C0DAFFDF5083
:100BB800010AD8B465D7030AD8B478D7010AD8B4DB
:100BC8008BD7070AD8B49ED7010AD8B4B1D7030A7D
:100BD800D8B4C4D76AD24EC0D9FF4FC0DAFF150EB9
:100BE800DF6E50C0D9FF51C0DAFF010EDF6E000E74
:100BF8004C6E4EC0D9FF4FC0DAFFDF5023EC19F01E
:100C0800150E5ED14EC0D9FF4FC0DAFF160EDF6E4B
:100C180050C0D9FF51C0DAFFB8C0DFFF50C0D9FFBC
:100C280051C0DAFFDF504C6E4EC0D9FF4FC0DAFF1B
:100C3800DF5023EC19F039D24EC0D9FF4FC0DAFF8C
:100C4800170EDF6E50C0D9FF51C0DAFF010EDF6EFC
:100C580050C0D9FF51C0DAFFDF504C6E4EC0D9FFEB
:100C68004FC0DAFFDF5023EC19F01FD24EC0D9FF76
:100C78004FC0DAFF180EDF6E50C0D9FF51C0DAFF3F
:100C8800B7C0DFFF50C0D9FF51C0DAFFDF504C6E4C
:100C98004EC0D9FF4FC0DAFFDF5023EC19F005D260
:100CA8004EC0D9FF4FC0DAFF190EDF6E50C0D9FF12
:100CB80051C0DAFF010EDF6E50C0D9FF51C0DAFF14
:100CC800DF504C6E4EC0D9FF4FC0DAFFDF5023EC27
:100CD80019F0EBD14EC0D9FF4FC0DAFF1A0EDF6E04
:100CE80050C0D9FF51C0DAFF010EDF6E50C0D9FFE6
:100CF80051C0DAFFDF504C6E4EC0D9FF4FC0DAFF4B
:100D0800DF5023EC19F0D1D14EC0D9FF4FC0DAFF24
:100D18001B0EDF6E50C0D9FF51C0DAFF010EDF6E27
:100D280050C0D9FF51C0DAFFDF504C6E4EC0D9FF1A
:100D38004FC0DAFFDF5023EC19F0B7D150C0D9FF0C
:100D480051C0DAFFDF50010AD8B445D7030AD8B436
:100D580059D7010AD8B470D7070AD8B487D7010A77
:100D6800D8B49ED7030AD8B4B5D7010AD8B4CCD71B
:100D78009CD14EC0D9FF4FC0DAFF150EDF6E50C0B0
:100D8800D9FF51C0DAFFDF500001B86FB8C001F0D9
:100D9800210E4FEC25F0000E4C6E4EC0D9FF4FC00F
:100DA800DAFFDF5023EC19F0160E8AD04EC0D9FFB7
:100DB8004FC0DAFF150EDF6E000E4C6E4EC0D9FF25
:100DC8004FC0DAFFDF5023EC19F0170E79D04EC070
:100DD800D9FF4FC0DAFF150EDF6E50C0D9FF51C0E2
:100DE800DAFFDF500001B76FB7C001F0220E4FECF9
:100DF80025F0000E4C6E4EC0D9FF4FC0DAFFDF5011
:100E080023EC19F0180E5CD04EC0D9FF4FC0DAFFA2
:100E1800150EDF6E010E4C6E4EC0D9FF4FC0DAFFC3
:100E2800DF5023EC19F0190E4BD04EC0D9FF4FC03C
:100E3800DAFF150EDF6E010E4C6E4EC0D9FF4FC0A3
:100E4800DAFFDF5023EC19F01A0E3AD04EC0D9FF62
:100E58004FC0DAFF150EDF6E010E4C6E4EC0D9FF83
:100E68004FC0DAFFDF5023EC19F01B0E29D04EC01B
:100E7800D9FF4FC0DAFF1F0EDF6E50C0D9FF51C037
:100E8800DAFFB6C0DFFF230EE2EC25F00001B66FF3
:100E980050C0D9FF51C0DAFFDF504C6E4EC0D9FFA9
:100EA8004FC0DAFFDF5023EC19F0FFD0010ECCEC75
:100EB80021F04EC0D9FF4FC0DAFF200EB2D0010E8C
:100EC800596EF3D0010ECCEC21F04EC0D9FF4FC0C3
:100ED800DAFF210EA6D050C0D9FF51C0DAFFDF508B
:100EE800010AD8B4C4D7030AD8B4E0D7010AD8B4E1
:100EF800E9D7DBD0010ECCEC21F0E1D74EC0D9FF09
:100F08004FC0DAFF290EDF6E50C0D9FF51C0DAFF9B
:100F1800000EDF6E50C0D9FF51C0DAFFDF504C6EB3
:100F28004EC0D9FF4FC0DAFFDF5023EC19F0BDD017
:100F38004EC0D9FF4FC0DAFF2A0EDF6E50C0D9FF6E
:100F480051C0DAFF000EDF6E50C0D9FF51C0DAFF82
:100F5800DF504C6E4EC0D9FF4FC0DAFFDF5023EC94
:100F680019F0A3D04EC0D9FF4FC0DAFF2B0EDF6EA9
:100F780050C0D9FF51C0DAFF000EDF6E50C0D9FF54
:100F880051C0DAFFDF504C6E4EC0D9FF4FC0DAFFB8
:100F9800DF5023EC19F089D04EC0D9FF4FC0DAFFDB
:100FA8002C0EDF6E50C0D9FF51C0DAFF000EDF6E85
:100FB80050C0D9FF51C0DAFFDF504C6E4EC0D9FF88
:100FC8004FC0DAFFDF5023EC19F06FD04EC0D9FFC5
:100FD8004FC0DAFF2D0EDF6E50C0D9FF51C0DAFFC7
:100FE800000EDF6E50C0D9FF51C0DAFFDF504C6EE3
:100FF8004EC0D9FF4FC0DAFFDF5023EC19F055D0AF
:10100800010ECCEC21F04EC0D9FF4FC0DAFF2E0EF6
:1010180008D0010ECCEC21F04EC0D9FF4FC0DAFF4A
:101028002F0EDF6E4CD750C0D9FF51C0DAFFDF500A
:10103800010AD8B463D7030AD8B47AD7010AD8B456
:1010480091D7070AD8B4A8D7010AD8B4BFD7030ADA
:10105800D8B4D6D7010AD8B4DCD727D04EC0D9FF28
:101068004FC0DAFFDF50010AD8B49DD5030AD8B4BF
:1010780065D6010AD8B42FD7070AD8B4D4D7120A2C
:10108800D8B477D6010AD8B491D60F0AD8B49FD667
:10109800010AD8B4B9D6030AD8B4C7D6010AD8B455
:1010A800D5D6040AD8B426D7340A000E5A6E000ED4
:1010B800576E0E0E576401D054D25750010DBC0E16
:1010C800F324D96E000EF420DA6E200EDF6E572A54
:1010D800F0D74EC0D9FF4FC0DAFF010EDF643BD016
:1010E8004EC0D9FF4FC0DAFF0A0EDF6012D04EC0E3
:1010F800D9FF4FC0DAFFDF50556E550450C0D9FFF5
:1011080051C0DAFFDF6E4EC0D9FF4FC0DAFF010EC3
:1011180021D04EC0D9FF4FC0DAFFDF50566E0A0EFD
:10112800016E4EC0D9FF4FC0DAFFDF50D6EC24F075
:101138004EC0D9FF4FC0DAFFDF6E4EC0D9FF4FC097
:10114800DAFFDF500A0DF3500008562450C0D9FFCB
:1011580051C0DAFFDF6E50C0D9FF51C0DAFFDF504F
:101168004C6E4EC0D9FF4FC0DAFFDF5023EC19F0A8
:10117800000E5A6E000E586E0E0E586401D0F1D152
:101188005850010DBC0EF324D96E000EF420DA6E0F
:10119800200EDF6E582AF0D74EC0D9FF4FC0DAFFB5
:1011A800DF50D8A4DED1FF0E0C6E0B6895EC21F051
:1011B8004EC0D9FF4FC0DAFF010EDF6E50C0D9FF15
:1011C80051C0DAFF010EDF6E50C0D9FF51C0DAFFFF
:1011D800DF504C6E4EC0D9FF4FC0DAFFDF5023EC12
:1011E80019F0BFD14EC0D9FF4FC0DAFF290EDE1863
:1011F800D8A414D05A50010DBC0EF324D96E000E99
:10120800F420DA6E2E0EDF6E5A2ABC0E186E000E0F
:10121800196E010E1A6E020EE6EC0CF04EC0D9FFE4
:101228004FC0DAFF2A0EDE18D8A414D05A50010D88
:10123800BC0EF324D96E000EF420DA6E2E0EDF6E8B
:101248005A2ABC0E186E000E196E010E1A6E020E86
:10125800E6EC0CF04EC0D9FF4FC0DAFF2B0EDE18BB
:10126800D8A417D00B0E5A6001D05A2A5A50010D33
:10127800BC0EF324D96E000EF420DA6E300EDF6E49
:10128800BC0E186E000E196E010E1A6E020EE6ECF8
:101298000CF04EC0D9FF4FC0DAFF2C0EDE18D8A4D0
:1012A80060D15A50010DBC0EF324D96E000EF42003
:1012B800DA6E2E0EDF6E5A2ABC0E186E000E196EEC
:1012C800010E1A6E020EE6EC0CF04BD14EC0D9FF9F
:1012D8004FC0DAFF170EDE18D8A409D053C018F093
:1012E80054C019F0000E1A6E020EE6EC0CF04EC057
:1012F800D9FF4FC0DAFF190EDE18D8A409D053C0A1
:1013080018F054C019F0000E1A6E020EE6EC0CF03C
:101318004EC0D9FF4FC0DAFF1A0EDE18D8A409D084
:1013280053C018F054C019F0000E1A6E020EE6EC05
:101338000CF04EC0D9FF4FC0DAFF1B0EDE18D8A440
:1013480009D053C018F054C019F0000E1A6E020EDE
:10135800E6EC0CF04EC0D9FF4FC0DAFF290EDE18BC
:10136800D8A414D05A50010DBC0EF324D96E000E27
:10137800F420DA6E52C0DFFF5A2ABC0E186E000E37
:10138800196E010E1A6E020EE6EC0CF04EC0D9FF73
:101398004FC0DAFF2A0EDE18D8A414D05A50010D17
:1013A800BC0EF324D96E000EF420DA6E52C0DFFFB3
:1013B8005A2ABC0E186E000E196E010E1A6E020E15
:1013C800E6EC0CF04EC0D9FF4FC0DAFF2B0EDE184A
:1013D800D8A478D0310E5218D8A474D05A50010D20
:1013E800BC0EF324D96E000EF420DA6E2F0EDF64E3
:1013F80014D05A50010DBC0EF324D96E000EF420FF
:10140800DA6E3A0EDF6009D05A50010DBC0EF32493
:10141800D96E000EF420DA6EDF2A5A50010DBC0E88
:10142800F324D96E000EF420DA6E200EDE18D8B43C
:101438000CD05A50010DBC0EF324D96E000EF420C6
:10144800DA6E460EDE18D8A40AD05A50010DBC0E2A
:10145800F324D96E000EF420DA6E300EDF6E5A5087
:10146800010DBC0EF324D96E000EF420DA6E400E86
:10147800DF6409D05A50010DBC0EF324D96E000E5A
:10148800F420DA6EDF2A5A50010DBC0EF324D96E0F
:10149800000EF420DA6E3A0EDE18D8A40AD05A509C
:1014A800010DBC0EF324D96E000EF420DA6E410E45
:1014B800DF6EBC0E186E000E196E010E1A6E020E4B
:1014C800E6EC0CF04EC0D9FF4FC0DAFF2C0EDE1848
:1014D800D8A414D05A50010DBC0EF324D96E000EB6
:1014E800F420DA6E52C0DFFF5A2ABC0E186E000EC6
:1014F800196E010E1A6E020EE6EC0CF04EC0D9FF02
:101508004FC0DAFF2D0EDE18D8A42BD05A50010D8B
:10151800BC0EF324D96E000EF420DA6E52C0DFFF41
:101528005A2ABC0E186E000E196E010E1A6E020EA3
:10153800E6EC0CF016D05250230AD8B48FD5090A1D
:10154800D8B4C7D56B0AD8B49EEF04F0030AD8B450
:101558000EEF05F0010AD8B41FD6070AD8B442D650
:10156800B5D65950120005018E6F22D2000E050122
:10157800946F000E936F945105E10F0E935DD8B0F0
:10158800120001D0120093517325D96E9451742121
:10159800DA6E200EDE18D8B409D093517325D96EAF
:1015A80094517421DA6EDF50D8A408D07F0E9325A9
:1015B800D96E050E9421DA6E260EDF6E93517325CF
:1015C800D96E94517421DA6E2F0EDF6418D09351BE
:1015D8007325D96E94517421DA6E3A0EDF600FD0FC
:1015E8007F0E9325D96E050E9421DA6E93517325DB
:1015F800E16E94517421E26EE750D00FDF6E935183
:101608007325D96E94517421DA6E3A0EDE18D8A477
:1016180008D07F0E9325D96E050E9421DA6E0A0E36
:10162800DF6E93517325D96E94517421DA6E400E92
:10163800DF640FD07F0E9325D96E050E9421DA6EE4
:1016480093517325E16E94517421E26EE750CB0FEC
:10165800DF6E93517325D96E94517421DA6E2E0E74
:10166800DE18D8A408D07F0E9325D96E050E9421D4
:10167800DA6E270EDF6E000E906F000E8F6F90519E
:1016880005E1080E8F5DD8B07DD001D07BD0000E6B
:10169800926F000E916F925170E1080E915DD8B073
:1016A8006CD0FF0E8E250001936F946BFF0E942370
:1016B800000E966F0A0E956F64EC25F005019151A6
:1016C800000193270501925100019423010E9325EF
:1016D80005017B6F000E0001942105017C6F7BC51D
:1016E800F6F17CC5F7F193C576F594C577F5D890F2
:1016F80076377737D89076377737D8907637773701
:101708008F51762790517723010E76250101F86FC6
:10171800000E050177210101F96F7F0E0501932560
:10172800D96E050E9421DA6EDF50786F7851080D66
:101738003F0E796FFE0E7A6FF3507927F4507A23B3
:101748008F51792790517A2379C5F6FF7AC5F7FF2B
:101758000800F5500001936F946B91C595F092C500
:1017680096F056EC24F00101FA6F040EFB6F0DECB5
:1017780018F00501914B922B8ED78F4B902B9051DF
:1017880001E17FD7934B942B945101E1F6D61200D7
:10179800000E946F000E936F945105E10F0E935D48
:1017A800D8B0120001D0120093517325D96E94510C
:1017B8007421DA6E200EDE18D8B409D0935173253F
:1017C800D96E94517421DA6EDF50D8A408D07F0EF8
:1017D8009325D96E050E9421DA6E260EDF6E93518D
:1017E8007325D96E94517421DA6E2F0EDF6418D0E8
:1017F80093517325D96E94517421DA6E3A0EDF60D5
:101808000FD07F0E9325D96E050E9421DA6E935171
:101818007325E16E94517421E26EE750D00FDF6EAC
:1018280093517325D96E94517421DA6E3A0EDE18ED
:10183800D8A408D07F0E9325D96E050E9421DA6EB0
:101848000A0EDF6E93517325D96E94517421DA6EA6
:10185800400EDF640FD07F0E9325D96E050E9421BC
:10186800DA6E93517325E16E94517421E26EE7505C
:10187800CB0FDF6E93517325D96E94517421DA6EB4
:101888002E0EDE18D8A408D07F0E9325D96E050E2B
:101898009421DA6E270EDF6E000E906F000E8F6FA8
:1018A800905105E1080E8F5DD8B07DD001D07BD076
:1018B800000E926F000E916F925170E1080E915DCB
:1018C800D8B06CD0FF0E8E250001936F946BFF0E7D
:1018D8009423000E966F0A0E956F64EC25F00501AF
:1018E8009151000193270501925100019423010EA3
:1018F800932505017D6F000E0001942105017E6F7F
:101908007DC5F6F17EC5F7F193C576F594C577F5F3
:10191800D89076377737D89076377737D890763724
:1019280077378F51762790517723010E762501015D
:10193800F86F000E050177210101F96F7F0E05018F
:101948009325D96E050E9421DA6EDF50786F7851A1
:10195800080D3F0E796FFE0E7A6FF3507927F45019
:101968007A238F51792790517A2379C5F6FF7AC562
:10197800F7FF0800F5500001936F946B91C595F03F
:1019880092C596F056EC24F00101FA6F040EFB6F35
:1019980098EC18F00501914B922B8ED78F4B902B1A
:1019A800905101E17FD7934B942B94510AE1F6D6DD
:1019B80005017551000AD8B4EBD6010AD8A4120063
:1019C800D5D51200336EFFD1000E396E000E386E79
:1019D800395005E10F0E385CD8B0120001D0120062
:1019E80038501824D96E39501920DA6E200EDE18B6
:1019F800D8B409D038501824D96E39501920DA6E65
:101A0800DF50D8A408D0200E3824D96E000E392013
:101A1800DA6E260EDF6E38501824D96E3950192028
:101A2800DA6E2F0EDF6418D038501824D96E39506A
:101A38001920DA6E3A0EDF600FD0200E3824D96EE6
:101A4800000E3920DA6E38501824E16E395019200A
:101A5800E26EE750D00FDF6E38501824D96E395037
:101A68001920DA6E3A0EDE18D8A408D0200E3824D1
:101A7800D96E000E3920DA6E0A0EDF6E385018243F
:101A8800D96E39501920DA6E400EDF640FD0200E5F
:101A98003824D96E000E3920DA6E38501824E16ED9
:101AA80039501920E26EE750CB0FDF6E38501824FA
:101AB800D96E39501920DA6E2E0EDE18D8A408D047
:101AC800200E3824D96E000E3920DA6E270EDF6E0C
:101AD800000E356E000E346E355070E1080E345C21
:101AE800D8B06CD0000E376E000E366E375061E1FC
:101AF800080E365CD8B05DD0FF0E3324016E026A42
:101B0800FF0E0222000E046E0A0E036E78EC25F01A
:101B18003650012637500222010E01242F6E000E86
:101B28000220306E2FC00BF030C00CF038C01BF014
:101B380039C01CF0D8901B361C36D8901B361C3682
:101B4800D8901B361C3634501B2635501C22010EEB
:101B58001B240D6E000E1C200E6E200E3824D96E2C
:101B6800000E3920DA6EDF501D6E1D50080D3F0E35
:101B78001E6EFE0E1F6EF3501E26F4501F223450A8
:101B88001E2635501F221EC0F6FF1FC0F7FF080093
:101B9800F550016E026A36C003F037C004F098ECC5
:101BA80024F00F6E040E106EAAEC1BF0364A372A8A
:101BB8009DD7344A352A355001E190D7384A392A19
:101BC800395001E107D71200000E396E000E386E49
:101BD800395005E10F0E385CD8B0120001D0120060
:101BE80038501824D96E39501920DA6E200EDE18B4
:101BF800D8B409D038501824D96E39501920DA6E63
:101C0800DF50D8A408D0200E3824D96E000E392011
:101C1800DA6E260EDF6E38501824D96E3950192026
:101C2800DA6E2F0EDF6418D038501824D96E395068
:101C38001920DA6E3A0EDF600FD0200E3824D96EE4
:101C4800000E3920DA6E38501824E16E3950192008
:101C5800E26EE750D00FDF6E38501824D96E395035
:101C68001920DA6E3A0EDE18D8A408D0200E3824CF
:101C7800D96E000E3920DA6E0A0EDF6E385018243D
:101C8800D96E39501920DA6E400EDF640FD0200E5D
:101C98003824D96E000E3920DA6E38501824E16ED7
:101CA80039501920E26EE750CB0FDF6E38501824F8
:101CB800D96E39501920DA6E2E0EDE18D8A408D045
:101CC800200E3824D96E000E3920DA6E270EDF6E0A
:101CD800000E356E000E346E355070E1080E345C1F
:101CE800D8B06CD0000E376E000E366E375061E1FA
:101CF800080E365CD8B05DD0FF0E3324016E026A40
:101D0800FF0E0222000E046E0A0E036E78EC25F018
:101D18003650012637500222010E0124316E000E82
:101D28000220326E31C00BF032C00CF038C01BF00C
:101D380039C01CF0D8901B361C36D8901B361C3680
:101D4800D8901B361C3634501B2635501C22010EE9
:101D58001B240D6E000E1C200E6E200E3824D96E2A
:101D6800000E3920DA6EDF501D6E1D50080D3F0E33
:101D78001E6EFE0E1F6EF3501E26F4501F223450A6
:101D88001E2635501F221EC0F6FF1FC0F7FF080091
:101D9800F550016E026A36C003F037C004F098ECC3
:101DA80024F00F6E040E106E25EC1CF0364A372A0C
:101DB8009DD7344A352A355001E190D7384A392A17
:101DC800395009E107D71A50000AD8B4FDD6010ADC
:101DD800D8A41200F9D51200140E036E000E046E7A
:101DE800000E026E010E016E82500F0B026E350E50
:101DF800E82EFED700F08C968C948C928C90350E41
:101E0800E82EFED700F061D18C50F00B8C6E350EA9
:101E1800E82EFED700F08C5001098C6E350EE82EA6
:101E2800FED700F082500F0B046E0450D8B402D0D5
:101E3800440E036E8C50F00B8C6E350EE82EFED7D8
:101E480000F08C5002098C6E350EE82EFED700F09B
:101E580082500F0B046E0450D8B402D0430E036EA8
:101E68008C50F00B8C6E350EE82EFED700F08C509F
:101E780004098C6E350EE82EFED700F082500F0B49
:101E8800046E0450D8B402D0420E036E8C50F00B8E
:101E98008C6E350EE82EFED700F08C5008098C6E3B
:101EA800350EE82EFED700F082500F0B046E04505A
:101EB800D8B418D1410E07D18C50F00B8C6E350E6A
:101EC800E82EFED700F08C5001098C6E350EE82EF6
:101ED800FED700F082500F0B046E0450D8B402D025
:101EE800230E036E8C50F00B8C6E350EE82EFED749
:101EF80000F08C5002098C6E350EE82EFED700F0EB
:101F080082500F0B046E0450D8B402D0390E036E01
:101F18008C50F00B8C6E350EE82EFED700F08C50EE
:101F280004098C6E350EE82EFED700F082500F0B98
:101F3800046E0450D8B402D0360E036E8C50F00BE9
:101F48008C6E350EE82EFED700F08C5008098C6E8A
:101F5800350EE82EFED700F082500F0B046E0450A9
:101F6800D8B4C0D0330EAFD08C50F00B8C6E350E79
:101F7800E82EFED700F08C5001098C6E350EE82E45
:101F8800FED700F082500F0B046E0450D8B402D074
:101F9800300E036E8C50F00B8C6E350EE82EFED78B
:101FA80000F08C5002098C6E350EE82EFED700F03A
:101FB80082500F0B046E0450D8B402D0380E036E52
:101FC8008C50F00B8C6E350EE82EFED700F08C503E
:101FD80004098C6E350EE82EFED700F082500F0BE8
:101FE800046E0450D8B402D0350E036E8C50F00B3A
:101FF8008C6E350EE82EFED700F08C5008098C6EDA
:10200800350EE82EFED700F082500F0B046E0450F8
:10201800D8B468D0320E57D08C50F00B8C6E350E79
:10202800E82EFED700F08C5001098C6E350EE82E94
:10203800FED700F082500F0B046E0450D8B402D0C3
:102048002A0E036E8C50F00B8C6E350EE82EFED7E0
:1020580000F08C5002098C6E350EE82EFED700F089
:1020680082500F0B046E0450D8B402D0370E036EA2
:102078008C50F00B8C6E350EE82EFED700F08C508D
:1020880004098C6E350EE82EFED700F082500F0B37
:10209800046E0450D8B402D0340E036E8C50F00B8A
:1020A8008C6E350EE82EFED700F08C5008098C6E29
:1020B800350EE82EFED700F082500F0B046E045048
:1020C800D8B410D0310E036E0DD00250010AD8B426
:1020D8009BD6030AD8B4F0D6060AD8B445D70C0A5A
:1020E800D8B49AD7350EE82EFED700F08C868C84AB
:1020F8008C828C8003501200F50E0501706F010E62
:10210800716F30D1250E7819D8B404D078519CEC71
:1021180025F028D1000E0501776F000E766F000EAE
:10212800756F05D0050175850101F34BF42BF3C1DB
:10213800F6FFF4C1F7FF0800F550300AD8B4F2D71B
:10214800F3C1F6FFF4C1F7FF0800F5508BEC25F05A
:10215800D8A039D0000E0501776F000E766F76C5CE
:1021680093F077C594F0000E0001966F0A0E956FF4
:1021780064EC25F093C076F594C077F5D00E010194
:10218800F56FFF0EF66FF3C1F6FFF4C1F7FF080015
:10219800F550F76FF86BF551F727F651F823F7511B
:1021A800050176270101F851050177230101F34B59
:1021B800F42BF3C1F6FFF4C1F7FF0800F5508BECE0
:1021C80025F0D8B0CCD7F3C1F6FFF4C1F7FF010171
:1021D800F34BF42B0800F5CF78F505017851000A88
:1021E800D8B41200640AD8B403D00D0AD8A4BAD05F
:1021F80070C5D9FF71C5DAFFDECF73F5DDCF74F591
:10220800020E05017027000E712374AF06D0030E6D
:102218007513736D741FD8B0742B010E786F050E8B
:102228007819D8B412D07851020D9F0EF324F66EA7
:10223800FF0EF420F76E0900F550735D0900F550A4
:102248007459D8A002D0782BEAD776517711D8B430
:102258000BD075C5F5F1030E0101F517D8B404D0FC
:1022680005017607D8A07707800E050178BF7F0E95
:102278000101F56F05017651785D7751800A0101FA
:10228800F559D8B008D005017851765F000E78BFAF
:10229800FF0E775B05D0000E0501776F000E766F95
:1022A80075A517D075C5F5F1030E0101F517D8B45A
:1022B80003D02D0E9CEC25F0050176517711D8B48A
:1022C80021D0300E9CEC25F005017607D8A07707C1
:1022D800F4D776517711D8B40BD0200E9CEC25F0AA
:1022E80005017607D8A0770776517711D8A4F5D7D6
:1022F80075C5F5F1030E0101F517D8B403D02D0EFD
:102308009CEC25F078C572F528D005017251020DB4
:102318009F0EF324F66EFF0EF420F76E0900F5CF3A
:1023280095F00A00F5CF96F073C593F074C594F054
:102338002AEC22F093C0EEF194C0EFF1000E0101F7
:10234800F16F0A0EF06F12EC24F00101EE51300F1C
:102358000501786F78519CEC25F005017207722908
:10236800D8A4D3D7F3C1F6FFF4C1F7FF0101F34BAB
:10237800F42B0800F5CF78F505017851D8B4120090
:10238800C1D60F0E156E000E166E11D1250E1D1832
:10239800D8B404D01D50ACEC25F009D1000E1C6E49
:1023A800000E1B6E000E1A6E03D01A840D4A0E2AF8
:1023B8000DC0F6FF0EC0F7FF0800F550300AD8B47C
:1023C800F4D70DC0F6FF0EC0F7FF0800F550BBECC0
:1023D80025F0D8A032D0000E1C6E000E1B6E1BC05C
:1023E80001F01CC002F0000E046E0A0E036E78ECB9
:1023F80025F001C01BF002C01CF0D00E116EFF0EBC
:10240800126E0DC0F6FF0EC0F7FF0800F550136EF0
:10241800146A115013261250142213501B261450FC
:102428001C220D4A0E2A0DC0F6FF0EC0F7FF080049
:10243800F550BBEC25F0D8B0D2D70DC0F6FF0EC0D2
:10244800F7FF0D4A0E2A0800F5CF1DF01D50000AAF
:10245800D8B41200640AD8B403D00D0AD8A4A7D0FF
:1024680015C0D9FF16C0DAFFDECF18F0DDCF19F09E
:10247800020E1526000E162219AE06D0030E1A12E9
:10248800186C191ED8B0192A010E1D6E050E1D18DC
:10249800D8B412D01D50020D9F0EF324F66EFF0E15
:1024A800F420F76E0900F550185C0900F55019582A
:1024B800D8A002D01D2AEAD71B501C10D8B409D0C6
:1024C8001AC011F0030E1116D8B403D01B06D8A0F9
:1024D8001C06800E1DBE7F0E116E1B501D5C1C500D
:1024E800800A1158D8B007D01D501B5E000E1DBEC3
:1024F800FF0E1C5A04D0000E1C6E000E1B6E1AA490
:1025080014D01AC011F0030E1116D8B403D02D0E32
:10251800ACEC25F01B501C10D8B41ED0300EACEC1F
:1025280025F01B06D8A01C06F5D71B501C10D8B4E4
:102538000AD0200EACEC25F01B06D8A01C061B50B8
:102548001C10D8A4F6D71AC011F0030E1116D8B46F
:1025580003D02D0EACEC25F01DC017F024D0175079
:10256800020D9F0EF324F66EFF0EF420F76E09009D
:10257800F5CF03F00A00F5CF04F018C001F019C038
:1025880002F054EC22F001C008F002C009F0000E7D
:102598000B6E0A0E0A6E77EC24F00850300F1D6E91
:1025A8001D50ACEC25F017061728D8A4D8D70DC0B5
:1025B800F6FF0EC0F7FF0D4A0E2A0800F5CF1DF0F2
:1025C8001D50D8B41200E2D621EE00F010EE20F033
:1025D800040EDBCFE3FFE806FCE21AAE08D0010EDA
:1025E800F3EC16F0196C1A1ED8B01A2A03D0000E94
:1025F800F3EC16F01ABE0ED0100E195C270E1A58FE
:10260800D8A008D0000E206E05D0202AF00E19267A
:10261800D80E1A221ABE0CD0100E195C270E1A58A2
:10262800D8A006D0F2D7212A180E1926FC0E1A2295
:102638001ABE06D0E80E195C030E1A58D8B0F3D7A4
:10264800030E5B600FD00A0E2018D8A40BD02150BF
:10265800D8A408D00A0E216E05D0222A9C0E19266D
:10266800FF0E1A221ABE06D01A50F7E1640E195C42
:10267800D8B0F3D7020E5B600FD00A0E2118D8A489
:102688000BD02250D8A408D00A0E226E05D0232AD7
:10269800F60E1926FF0E1A221ABE06D01A50F7E1B6
:1026A8000A0E195CD8B0F3D75B50D8A409D00A0E2B
:1026B8002218D8A405D02350D8A402D00A0E236E1D
:1026C80019C024F0000E276E040E276401D01200F2
:1026D800000E256E150E256401D054D0000E266E0E
:1026E8000F0E266401D04CD0280E25240B6E0C6AE0
:1026F800000E0C222750120D2650F326000EF4224D
:10270800080EF3240D6E000EF4200E6E2750010DF6
:10271800200EF324D96E000EF420DA6EDF501B6E03
:102728001B502C0D5B0E1C6EFC0E1D6EF3501C26F0
:10273800F4501D222550020DF3501C26F4501D2282
:102748001CC0F6FF1DC0F7FF0900F5CF01F00A0015
:10275800F5CF02F026501E6E1F6A1E1E1F1E1E4A4F
:102768001F2A0F0E1E24036E000E1F20046E98EC05
:1027780024F00F6E050E106E25EC1CF0262AB0D73B
:10278800252AA8D7272AA0D74A6E24EE10F010EEE3
:102798003AF00F0EDBCFE3FFE806FCE24A04D8A4C8
:1027A8000AD0C00E186E020E196E010E1A6E010EB6
:1027B800E6EC0CF009D0C00E186E020E196E000E71
:1027C8001A6E010EE6EC0CF0020E4A18D8A40AD0D4
:1027D800B00E186E020E196E010E1A6E020EE6EC9D
:1027E8000CF009D0B00E186E020E196E000E1A6E9B
:1027F800020EE6EC0CF0030E4A18D8A40AD0A00E7C
:10280800186E020E196E010E1A6E030EE6EC0CF02D
:1028180009D0A00E186E020E196E000E1A6E030E65
:10282800E6EC0CF0040E4A18D8A40AD0900E186EE4
:10283800020E196E010E1A6E040EE6EC0CF009D0A9
:10284800900E186E020E196E000E1A6E040EE6EC4B
:102858000CF0050E4A18D8A40AD0800E186E020E85
:10286800196E010E1A6E050EE6EC0CF009D0800EFA
:10287800186E020E196E000E1A6E050EE6EC0CF0BC
:10288800060E4A18D8A40AD0150E186E010E196E35
:10289800010E1A6E060EE6EC0CF009D0150E186E35
:1028A800010E196E000E1A6E060EE6EC0CF0070EFD
:1028B8004A18D8A40AD0050E186E010E196E010E1A
:1028C8001A6E070EE6EC0CF01200050E186E010EDB
:1028D800196E000E1A6E070EE6EC0CF012004A6E26
:1028E80024EEB0F010EE3AF00F0EDBCFE3FFE8066F
:1028F800FCE24A04D8A40AD0850E186E010E196E9F
:10290800010E1A6E010EE6EC0CF009D0850E186E59
:10291800010E196E000E1A6E010EE6EC0CF0020E96
:102928004A18D8A40AD0750E186E010E196E010E39
:102938001A6E020EE6EC0CF009D0750E186E010E38
:10294800196E000E1A6E020EE6EC0CF0030E4A1811
:10295800D8A40AD0650E186E010E196E010E1A6EF3
:10296800030EE6EC0CF009D0650E186E010E196E18
:10297800000E1A6E030EE6EC0CF0040E4A18D8A4EA
:102988000AD0550E186E010E196E010E1A6E040E3D
:10299800E6EC0CF009D0550E186E010E196E000EFB
:1029A8001A6E040EE6EC0CF0050E4A18D8A40AD0EC
:1029B800450E186E010E196E010E1A6E050EE6EC24
:1029C8000CF009D0450E186E010E196E000E1A6E25
:1029D800050EE6EC0CF0060E4A18D8A40AD0350EFF
:1029E800186E010E196E010E1A6E060EE6EC0CF04A
:1029F80009D0350E186E010E196E000E1A6E060EED
:102A0800E6EC0CF0070E4A18D8A40AD0250E186E6A
:102A1800010E196E010E1A6E070EE6EC0CF012008C
:102A2800250E186E010E196E000E1A6E070EE6ECD2
:102A38000CF012008968680E0001956FE40EE82E0C
:102A4800FED7952FFCD700F08990020E0001966FF3
:102A5800380E956FAD0EE82EFED7952FFCD7962F22
:102A6800FAD78980020E0001966F380E956FAD0E69
:102A7800E82EFED7952FFCD7962FFAD78992110EFC
:102A880002EC26F0020E0001966FA00E956F920ED2
:102A9800E82EFED7952FFCD7962FFAD700F0D00E48
:102AA80002EC26F0070E0BEC26F0420E0BEC26F09B
:102AB800180E0BEC26F0D10E02EC26F0000E0BECF3
:102AC80026F0070E0BEC26F0100E0BEC26F0D20EBB
:102AD80002EC26F0010E0BEC26F0000E0BEC26F0B3
:102AE800C00E02EC26F0100E0BEC26F03B0E0BECA1
:102AF80026F0000E0BEC26F0020E0BEC26F0110E61
:102B08000BEC26F0C50E02EC26F0030E0BEC26F0BB
:102B1800360E02EC26F00A0E0BEC26F03A0E02EC0A
:102B280026F0550E0BEC26F02A0E02EC26F0000ECD
:102B38000BEC26F0000E0BEC26F0010E0BEC26F049
:102B48003F0E0BEC26F02B0E02EC26F0000E0BECE1
:102B580026F0000E0BEC26F0010E0BEC26F0E00E32
:102B68000BEC26F00A0E0001966FBE0E956F790EDB
:102B7800E82EFED7952FFCD7962FFAD7290E02EC10
:102B880026F0898212004A6E24EEC0F010EE3AF068
:102B98000F0EDBCFE3FFE806FCE24A04D8A40AD014
:102BA800950E186E010E196E010E1A6E010EE6ECE6
:102BB8000CF009D0950E186E010E196E000E1A6EE3
:102BC800010EE6EC0CF0020E4A18D8A40AD0F00E5A
:102BD800186E020E196E010E1A6E020EE6EC0CF05B
:102BE80009D0F00E186E020E196E000E1A6E020E43
:102BF800E6EC0CF0030E4A18D8A40AD0D00E186ED2
:102C0800020E196E010E1A6E030EE6EC0CF009D0D6
:102C1800D00E186E020E196E000E1A6E030EE6EC38
:102C28000CF0040E4A18D8A40AD0700E186E020EC2
:102C3800196E010E1A6E040EE6EC0CF009D0700E37
:102C4800186E020E196E000E1A6E040EE6EC0CF0E9
:102C5800050E4A18D8A40AD0500E186E020E196E26
:102C6800010E1A6E050EE6EC0CF009D0500E186E27
:102C7800020E196E000E1A6E050EE6EC0CF0060E2A
:102C88004A18D8A40AD0400E186E020E196E010E0A
:102C98001A6E060EE6EC0CF009D0400E186E020E05
:102CA800196E000E1A6E060EE6EC0CF03A0E186E4F
:102CB800000E196E000E1A6E070EE6EC0CF01200EC
:102CC800700ED36E400E9B6E000E926E000E936EC9
:102CD800BF0E946EB00E956E000E0F015D6F000E64
:102CE8005C6FC00EF26E000E9F6E000EA26E200E7C
:102CF800A56E000EB86E000E786ED08EF8EC25F03A
:102D0800800E0101F66F250EF76F000EF86F000EAA
:102D1800F96FE3EC20F0800E0101F66F250EF76FD6
:102D2800000EF86F000EF96FA5EC20F01EEC15F000
:102D3800FF0E0001966F956921EC21F0150E050133
:102D4800986FC60EE82EFED7982FFCD700F0010E1C
:102D58000001AF6F020E9CEC25F0E30E0101F36F4A
:102D6800FF0EF46F80EC10F01FEC26F0FEEC21F063
:102D7800000E0001936F000E946F000EA4EC22F079
:102D8800AA0AD8A420D0000E0001936F000E946FF9
:102D9800010EA4EC22F00501986F98510101DC6F37
:102DA800DD6BDC51DD6FDC6B000E0001936F000EF4
:102DB800946F020EA4EC22F00501986F985101015E
:102DC800DC27000EDD23010E2CEC1BF00A0E00019F
:102DD800936F640E946F020E3AEC25F0FFD7186ECD
:102DE800000E0C6E320E0B6E000E0E6E010E0D6E86
:102DF80018C00FF0050E106E25EC1CF0000E0C6EBE
:102E0800320E0B6E000E0E6E020E0D6E18C00FF015
:102E1800050E106E25EC1CF0000E0C6E320E0B6EBB
:102E2800000E0E6E030E0D6E18C00FF0050E106E1C
:102E380025EC1CF0000E0C6E320E0B6E000E0E6EA2
:102E4800040E0D6E18C00FF0050E106E25EC1CF068
:102E5800000E0C6E320E0B6E000E0E6E050E0D6E11
:102E680018C00FF0050E106E25EC1CF0000E0C6E4D
:102E7800310E0B6E000E0E6E010E0D6E18C00FF0A7
:102E8800050E106E25EC1CF0000E0C6E310E0B6E4C
:102E9800000E0E6E020E0D6E18C00FF0050E106EAD
:102EA80025EC1CF0000E0C6E310E0B6E000E0E6E33
:102EB800030E0D6E18C00FF0050E106E25EC1CF0F9
:102EC800000E0C6E310E0B6E000E0E6E040E0D6EA3
:102ED80018C00FF0050E106E25EC1CF0000E0C6EDD
:102EE800310E0B6E000E0E6E050E0D6E18C00FF033
:102EF800050E106E25EC1CF01200BA0EF66E420E8E
:102F0800F76E000EF86E05EE00F010EE70F0090096
:102F1800F5CFEEFFE550E150FAE1580EF66E350EAA
:102F2800F76E000EF86E04EE00F011EE00F00900E6
:102F3800F5CFEEFFE550E150FAE1E250F8E1580E26
:102F4800F66E340EF76E000EF86E03EE00F011EE1A
:102F580000F00900F5CFEEFFE550E150FAE1E2504C
:102F6800F8E1580EF66E330EF76E000EF86E02EEAC
:102F780000F011EE00F00900F5CFEEFFE550E1504A
:102F8800FAE1E250F8E1E60EF66E3E0EF76E000E3C
:102F9800F86E01EE00F010EEB5F00900F5CFEEFF87
:102FA800E550E150FAE1AC0EF66E4B0EF76E000EEE
:102FB800F86E00EEB6F010EE17F00900F5CFEEFF50
:102FC800E550E150FAE1580EF66E4C0EF76E000E21
:102FD800F86E0900F5CF5EF005EE99F0140EEE6A72
:102FE800E806FDE101EEB5F0390EEE6AE806FDE10E
:102FF80000EE9AF01C0EEE6AE806FDE15D6A5C6A76
:103008005B6A5A6A5F905F92000EF86E000164EF87
:1030180016F0F6C193F0F7C194F0FBC195F00001EA
:10302800966B64EC25F093C0F6F194C0F7F1F8C103
:1030380093F0F9C194F0FBC195F00001966B64EC34
:1030480025F093C0F8F194C0F9F10101FB51FB039D
:10305800F3CF70F58992F6C1EEF1F7C1EFF1F8C13F
:10306800F0F1F9C1F1F1FB51F625FC6F000EF721E3
:10307800FD6FFF0EFC25F26FFF0EFD21F36FFB5174
:10308800F825FE6F000EF921FF6FFF0EFE25F46F85
:10309800FF0EFF21F56F7DEC22F024EC26F03AD0EC
:1030A800000E0501726F000E716F09D0F80E0BEC5F
:1030B80026F0000E0BEC26F00501714B722B7051B7
:1030C8000101FC6FFD6BFC510501715D0101FD51B2
:1030D80005017259D8B026D0E9D7000E0501726FE4
:1030E800000E716F09D0FF0E0BEC26F0FF0E0BECF3
:1030F80026F00501714B722B70510101FC6FFD6BBD
:10310800FC510501715D0101FD5105017259D8B0ED
:1031180009D0E9D70101FA51000AD8B4DED7010A6B
:10312800D8B4BED789821200F6C193F0F7C194F0E3
:10313800FBC195F00001966B64EC25F093C0F6F1A5
:1031480094C0F7F1F8C193F0F9C194F0FBC195F080
:103158000001966B64EC25F093C0F8F194C0F9F186
:103168000101FB51FB03F3CF70F58992F6C1EEF133
:10317800F7C1EFF1F8C1F0F1F9C1F1F1FB51F62512
:10318800FC6F000EF721FD6FFF0EFC25F26FFF0E9E
:10319800FD21F36FFB51F825FE6F000EF921FF6F3B
:1031A800FF0EFE25F46FFF0EFF21F56F7DEC22F078
:1031B80024EC26F03AD0000E0501726F000E716FF4
:1031C80009D0000E0BEC26F0000E0BEC26F00501E2
:1031D800714B722B70510101FC6FFD6BFC510501A5
:1031E800715D0101FD5105017259D8B026D0E9D7AA
:1031F800000E0501726F000E716F09D0FF0E0BEC07
:1032080026F0FF0E0BEC26F00501714B722B705166
:103218000101FC6FFD6BFC510501715D0101FD5160
:1032280005017259D8B009D0E9D70101FA51000A4D
:10323800D8B4DED7010AD8B4BED7898212004D6E41
:103248004CD04C50C7EC15F012004C5073EC14F0F5
:1032580012004C5057EC1EF012004C50C8EC13F002
:1032680012004C50F7EC1DF012004C501AEC20F0F4
:1032780012004C50CCEC21F012004C5017EC1DF011
:1032880012004C50EEEC23F012004C50B7EC1EF03C
:1032980012004C50CAEC23F012004C50A6EC23F05C
:1032A80012004C5082EC23F012004C50A0EC1CF0A1
:1032B80012004C505DEC23F012004C5038EC23F017
:1032C80012004C5013EC23F012004C50EEEC22F09C
:1032D80012004C50C9EC22F012004D50010AD8B42B
:1032E800B0D7030AD8B4B1D7010AD8B4B2D7070AFD
:1032F800D8B4B3D7010AD8B4B4D7030AD8B4B5D769
:10330800130AD8B4B6D7030AD8B4B7D7010AD8B4C1
:10331800B8D70F0AD8B4B9D7010AD8B4BAD7030AAC
:10332800D8B4BBD7010AD8B4BCD7040AD8B4BDD71F
:10333800360AD8B4BED7030AD8B4BFD7010AD8B45E
:10334800C0D7070AD8B4C1D7010AD8A41200C1D778
:10335800302E302020202020202020202020200057
:103368003020202020202020202020202020200065
:1033780043414E43454C202020202020202020007F
:10338800434F4E4649524D20202020202020200027
:1033980046494E4953482020202020202020200044
:1033A8005245534554202020202020202020200052
:1033B8004348414E4745202020202020202020003F
:1033C80050415353574F52442020202020202000A2
:1033D800504F525420202020202020202020200040
:1033E800495020202020202020202020202020009C
:1033F8004D41432020202020202020202020200074
:103408005355424E4554204D41534B202020200017
:103418004741544557415920202020202020200092
:1034280045544845524E4554202020202020200055
:103438004241554420202020202020202020200008
:1034480053455249414C2020202020202020200094
:103458003235352E3235352E3235352E3020200096
:103468003139322E3136382E302E32353420200084
:1034780056414C554520494E2047522020202000D7
:103488005441524520494E204752202020202000F8
:1034980057454947485420494E204752202020008C
:1034A80031313532303020202020202020202000CB
:1034B80033383430302020202020202020202000C5
:1034C80031393230302020202020202020202000B8
:1034D80039363030202020202020202020202000B5
:1034E8005354524F4E4720202020202020202000D7
:1034F8004D454449554D20202020202020202000E3
:103508005745414B2020202020202020202020002B
:10351800302E303030202020202020202020200075
:10352800302E303020202020202020202020200075
:1035380057414954202020202020202020202000EE
:10354800444F4E45202020202020202020202000ED
:103558002020202020202020202020202020200083
:103568002020202020202020202020202020200073
:103578002020202020202020202020202020200063
:103588002020202020202020202020202020200053
:103598002020202020202020202020202020200043
:1035A8002020202020202020202020202020200033
:1035B8002020202020202020202020202020200023
:1035C8002020202020202020202020202020200013
:1035D8002020202020202020202020202020200003
:1035E80020202020202020202020202020202000F3
:1035F80020202020202020202020202020202000E3
:1036080020202020202020202020202020202000D2
:1036180020202020202020202020202020202000C2
:103628003830383020202020202020202020200062
:103638003032314545333830304141322020200086
:103648003139322E3136382E302E313020202000BC
:103658000501956F000E0501976F000E966F6FD0EC
:10366800DE0E0001936F010E946FAA0E956FFF0E88
:10367800966FF3EC24F0DCC196F5DDC197F5100EDA
:103688000501965D270E9759D8A012D0300E01017A
:10369800E46F07D00101E42B0501100E965F270E99
:1036A800975B110E0501965D270E9759D8B0F2D792
:1036B800300E0101E56F07D00101E52B0501E80E89
:1036C800965F030E975BE80E0501965D030E97590A
:1036D800D8B0F2D72E0E0101E66F300EE76F07D093
:1036E8000101E72B640E0501965F000E975B05014B
:1036F8009751F6E1640E965DD8B0F2D7300E01010D
:10370800E86F07D00101E82B0A0E0501965F000E4D
:10371800975B05019751F6E10A0E965DD8B0F2D78E
:103728009651300F0101E96FDE0E0501736F010E2E
:10373800746F000E756F010EB7EC0AF012000501E8
:103748009551010AD8B48CD7030A12000BC001F0B6
:103758000CC002F010C003F0046A78EC25F001C038
:103768000BF002C00CF00DC001F00EC002F010C04A
:1037780003F0046A78EC25F001C00DF002C00EF0E9
:1037880010501002F3CF15F089920BC003F00CC053
:1037980004F00DC005F00EC006F010500B24116E99
:1037A800000E0C20126EFF0E1124076EFF0E122061
:1037B800086E10500D24136E000E0E20146EFF0EAE
:1037C8001324096EFF0E14200A6EB7EC24F028ECBF
:1037D80026F02ED0000E176E000E166E08D0F80ECA
:1037E80019EC26F0000E19EC26F0164A172A155087
:1037F800116E126A1150165C12501758D8B01FD0AB
:10380800EED7000E176E000E166E08D0FF0E19ECDC
:1038180026F0FF0E19EC26F0164A172A1550116EDD
:10382800126A1150165C12501758D8B008D0EED74B
:103838000F50000AD8B4E5D7010AD8B4CBD789828B
:1038480012000BC001F00CC002F010C003F0046AB3
:1038580078EC25F001C00BF002C00CF00DC001F0AF
:103868000EC002F010C003F0046A78EC25F001C025
:103878000DF002C00EF010501002F3CF15F089922F
:103888000BC003F00CC004F00DC005F00EC006F02C
:1038980010500B24116E000E0C20126EFF0E112416
:1038A800076EFF0E1220086E10500D24136E000EC6
:1038B8000E20146EFF0E1324096EFF0E14200A6EDC
:1038C800B7EC24F028EC26F02ED0000E176E000E70
:1038D800166E08D0000E19EC26F0000E19EC26F032
:1038E800164A172A1550116E126A1150165C12509A
:1038F8001758D8B01FD0EED7000E176E000E166EF0
:1039080008D0FF0E19EC26F0FF0E19EC26F0164A27
:10391800172A1550116E126A1150165C125017585A
:10392800D8B008D0EED70F50000AD8B4E5D7010AAE
:10393800D8B4CBD7898212004B6E24EE20F010EE5B
:103948003AF00F0EDBCFE3FFE806FCE24B04D8A405
:103958000AD0800E186E030E196E010E1A6E010E33
:10396800E6EC0CF009D0800E186E030E196E000EEE
:103978001A6E010EE6EC0CF0020E4B18D8A40AD011
:10398800700E186E030E196E010E1A6E020EE6EC1A
:103998000CF009D0700E186E030E196E000E1A6E18
:1039A800020EE6EC0CF0030E4B18D8A40AD0600EF9
:1039B800186E030E196E010E1A6E030EE6EC0CF06B
:1039C80009D0600E186E030E196E000E1A6E030EE3
:1039D800E6EC0CF0040E4B18D8A40AD0500E186E62
:1039E800030E196E010E1A6E040EE6EC0CF009D0E7
:1039F800500E186E030E196E000E1A6E040EE6ECC9
:103A08000CF0000E4A6E020E4A6401D012003A0E03
:103A1800186E000E196E000E1A6E4A50050FE6EC6D
:103A28000CF04A2AF0D74B6E24EE90F010EE3AF0E4
:103A38000F0EDBCFE3FFE806FCE24B04D8A40AD064
:103A4800100E186E020E196E010E1A6E010EE6ECBB
:103A58000CF009D0100E186E020E196E000E1A6EB8
:103A6800010EE6EC0CF0020E4B18D8A40AD0000E9A
:103A7800186E020E196E010E1A6E020EE6EC0CF0AC
:103A880009D0000E186E020E196E000E1A6E020E84
:103A9800E6EC0CF0030E4B18D8A40AD0D00E186E22
:103AA800030E196E010E1A6E030EE6EC0CF009D027
:103AB800D00E186E030E196E000E1A6E030EE6EC89
:103AC8000CF0040E4B18D8A40AD0C00E186E030EC2
:103AD800196E010E1A6E040EE6EC0CF009D0C00E39
:103AE800186E030E196E000E1A6E040EE6EC0CF03A
:103AF800000E4A6E020E4A6401D012003A0E186E89
:103B0800000E196E000E1A6E4A50050FE6EC0CF006
:103B18004A2AF0D73A6E000E3C6E000E3B6E5DD01E
:103B2800DE0E016E010E026EAA0E036EFF0E046E0B
:103B38000CEC25F0DCC13BF0DDC13CF0100E3B5C29
:103B4800270E3C58D8A00FD0300E0101E46F05D0E5
:103B5800E42B100E3B5E270E3C5A110E3B5C270EE1
:103B68003C58D8B0F5D7300E0101E56F05D0E52BEC
:103B7800E80E3B5E030E3C5AE80E3B5C030E3C58D5
:103B8800D8B0F5D72E0EE66F300EE76F05D0E72BCD
:103B9800640E3B5E000E3C5A3C50F9E1640E3B5CFF
:103BA800D8B0F5D7300EE86F05D0E82B0A0E3B5E8B
:103BB800000E3C5A3C50F9E10A0E3B5CD8B0F5D7F0
:103BC8003B50300FE96FDE0E186E010E196E000EB5
:103BD8001A6E010EE6EC0CF012003A50010AD8B445
:103BE8009FD7030A12004A6E25EE10F010EE3AF045
:103BF8000F0EDBCFE3FFE806FCE24A04D8A40AD0A4
:103C0800600E186E020E196E010E1A6E010EE6ECA9
:103C18000CF009D0600E186E020E196E000E1A6EA6
:103C2800010EE6EC0CF0020E4A18D8A40AD0150EC4
:103C3800186E010E196E010E1A6E020EE6EC0CF0EB
:103C480009D0150E186E010E196E000E1A6E020EAE
:103C5800E6EC0CF0030E4A18D8A40AD0050E186E2C
:103C6800010E196E010E1A6E030EE6EC0CF009D067
:103C7800050E186E010E196E000E1A6E030EE6EC94
:103C88000CF0000E4B6E030E4B6401D012003A0E7E
:103C9800186E000E196E000E1A6E4B50040FE6ECEB
:103CA8000CF04B2AF0D74A6E24EE30F010EE3AF0C2
:103CB8000F0EDBCFE3FFE806FCE24A04D8A40AD0E3
:103CC800E00E186E020E196E010E1A6E010EE6EC69
:103CD8000CF009D0E00E186E020E196E000E1A6E66
:103CE800010EE6EC0CF0020E4A18D8A40AD0150E04
:103CF800186E010E196E010E1A6E020EE6EC0CF02B
:103D080009D0150E186E010E196E000E1A6E020EED
:103D1800E6EC0CF0030E4A18D8A40AD0050E186E6B
:103D2800010E196E010E1A6E030EE6EC0CF009D0A6
:103D3800050E186E010E196E000E1A6E030EE6ECD3
:103D48000CF0000E4B6E030E4B6401D012003A0EBD
:103D5800186E000E196E000E1A6E4B50040FE6EC2A
:103D68000CF04B2AF0D74A6E24EE70F010EE3AF0C1
:103D78000F0EDBCFE3FFE806FCE24A04D8A40AD022
:103D8800B00E186E030E196E010E1A6E010EE6ECD7
:103D98000CF009D0B00E186E030E196E000E1A6ED4
:103DA800010EE6EC0CF0020E4A18D8A40AD0A00EB8
:103DB800186E030E196E010E1A6E020EE6EC0CF068
:103DC80009D0A00E186E030E196E000E1A6E020EA0
:103DD800E6EC0CF0030E4A18D8A40AD0900E186E20
:103DE800030E196E010E1A6E030EE6EC0CF009D0E4
:103DF800900E186E030E196E000E1A6E030EE6EC86
:103E08000CF0000E4B6E030E4B6401D012003A0EFC
:103E1800186E000E196E000E1A6E4B50040FE6EC69
:103E28000CF04B2AF0D7186E000E0C6E3E0E0B6E7F
:103E38001850120DF31EF41EF34AF42A600EF324F0
:103E48000D6E000EF4200E6E010E0F6E050E106E34
:103E580025EC1CF0000E0C6E3D0E0B6E1850120D6A
:103E6800F31EF41EF34AF42A600EF3240D6E000EBE
:103E7800F4200E6E010E0F6E050E106E25EC1CF070
:103E8800000E0C6E3E0E0B6E1850120DF31EF41E33
:103E9800F34AF42A610EF3240D6E000EF4200E6E20
:103EA800010E0F6E050E106E25EC1CF0000E0C6E48
:103EB8003D0E0B6E1850120DF31EF41EF34AF42A31
:103EC800610EF3240D6E000EF4200E6E010E0F6EBF
:103ED800050E106E25EC1CF018C05BF012000A00ED
:103EE8000000004F464620202020202020202020AF
:103EF8002020004F4E20202020202020202020207D
:103F0800202000535441424C452052414E47452001
:103F18002020005448524553484F4C44202020202C
:103F280020200054415245202020202020202020FD
:103F380020200046494C5445522020202020202093
:103F48002020005041545445524E2020202020204B
:103F5800202000444543494D414C53202020202037
:103F68002020005A45524F202020202020202020A9
:103F780020200043414C49425241544520202020F2
:103F88002020002020202020202020202020202049
:033F9800202000E6
:103F9C00000E0001936F000E946F000E956F000ED3
:103FAC00966F0101F251F311F411F511D8B433D01D
:103FBC00010E0001976F08D00101D890F237F3374A
:103FCC00F437F5370001972B0101F5AFF5D7000158
:103FDC00D89093379437953796370101F251EE5DAF
:103FEC00F351EF59F451F059F551F159D8A00AD0C9
:103FFC00F251EE5FF351EF5BF451F05BF551F15B75
:10400C00000193810101D890F533F433F333F2338B
:10401C000001972FDCD793C0EEF194C0EFF195C05F
:10402C00F0F196C0F1F112004A6E25EE00F010EEA0
:10403C003AF00F0EDBCFE3FFE806FCE24A04D8A40B
:10404C000AD0300E186E020E196E010E1A6E010E89
:10405C00E6EC0CF009D0300E186E020E196E000E44
:10406C001A6E010EE6EC0CF0020E4A18D8A40AD017
:10407C00200E186E020E196E010E1A6E020EE6EC70
:10408C000CF009D0200E186E020E196E000E1A6E6E
:10409C00020EE6EC0CF0000E4B6E040E4B6401D0DD
:1040AC0012003A0E186E000E196E000E1A6E4B505E
:1040BC00030FE6EC0CF04B2AF0D7000E066E04AEA4
:1040CC0006D0036C041ED8B0042A010E066E02AE94
:1040DC0006D0016C021ED8B0022A010E061A000E80
:1040EC00086E000E076E03500410D8B41CD0010EDD
:1040FC00056E04D0D89003360436052A04AEFAD7E0
:10410C00D890073608360350015C04500258D8A0EA
:10411C0005D00350015E0450025A0780D890043237
:10412C000332052EEDD70650D8B404D0076C081E08
:10413C00D8B0082A07C001F008C002F01200010133
:10414C00020ED890F637F737F837F937E82EF9D74B
:10415C00000EEE6F900EEF6FD00EF06F030EF16F3E
:10416C00F6C1F2F1F7C1F3F1F8C1F4F1F9C1F5F1CF
:10417C00CEEC1FF0EEC1FBF1EFC1FCF1FBC1FAF18B
:10418C00FAC17BFF0101FC51FB6FFC6BFBC1FAF127
:10419C00FAC17CFF240EBA6E900EA66EB986A39857
:1041AC00A498A38AA49A150E0001986FC60EE82E47
:1041BC00FED7982FFCD700F012000101020ED89008
:1041CC00F637F737F837F937E82EF9D7000EEE6FD8
:1041DC00900EEF6FD00EF06F030EF16FF6C1F2F18F
:1041EC00F7C1F3F1F8C1F4F1F9C1F5F1CEEC1FF020
:1041FC00EEC1FBF1EFC1FCF1FBC1FAF1FAC1AFFF6B
:10420C000101FC51FB6FFC6BFBC1FAF1FAC17DFFA4
:10421C00240EAC6E900EAB6EA7869D989E989D8AD0
:10422C009E9A150E0001986FC60EE82EFED7982F99
:10423C00FCD700F012008992000E0101EF6F000E06
:10424C00EE6F000EF16F000EF06F010EF36F3F0E6C
:10425C00F26F010EF56FDF0EF46F7DEC22F024ECA3
:10426C0026F0000E0101F76F000EF66F18D0000E4D
:10427C00F96F000EF86FE00EF85D010EF959D8B029
:10428C000CD0000196510BEC26F0000195510BEC73
:10429C0026F00101F84BF92BEED7F64BF72B400E1D
:1042AC00F65D010EF759D8A0E2D7898212002020C2
:1042BC002020202020202020202020202000202012
:1042CC002020202020202020202020202000202002
:1042DC0020202020202020202020202020002020F2
:1042EC0020202020202020202020202020002020E2
:1042FC0020202020202020202020202020002020D2
:10430C0020202020202020202020202020002020C1
:10431C0020202020202020202020202020008992D6
:10432C00000E046E000E036E000E066E000E056E7F
:10433C00010E086E3F0E076E010E0A6EDF0E096E3F
:10434C00B7EC24F028EC26F0000E0E6E000E0D6E6D
:10435C0015D0000E106E000E0F6EE00E0F5C010EED
:10436C001058D8B009D00C5019EC26F00B5019ECA1
:10437C0026F00F4A102AF1D70D4A0E2A400E0D5C7A
:10438C00010E0E58D8A0E5D7898212004A6E24EE91
:10439C00A0F010EE3AF00F0EDBCFE3FFE806FCE2E4
:1043AC004A50D8B40AD0F00E186E030E196E000ED7
:1043BC001A6E010EE6EC0CF009D0E00E186E030E2E
:1043CC00196E000E1A6E010EE6EC0CF0000E4B6E20
:1043DC00050E4B6401D012003A0E186E000E196EC9
:1043EC00000E1A6E4B50020FE6EC0CF04B2AF0D775
:1043FC00200ECAEC25F0AA0AD8A410D0210ECAECC3
:10440C0025F00001B86F220ECAEC25F00001B76F41
:10441C00230ECAEC25F00001B66F1200B8C093F061
:10442C00210E24EC25F0B7C093F0220E24EC25F0DD
:10443C00B6C093F0230E24EC25F0AA0E0001936F66
:10444C00200E24EC25F01200000E0001996F000ED6
:10445C00986F95519611D8B41CD0010E976F04D05B
:10446C00D89095379637972B96AFFAD7D890983730
:10447C0099379551935D96519459D8A005D0955183
:10448C00935F9651945B9881D89096339533972F80
:10449C00EDD798C093F099C094F01200000E066E00
:1044AC00000E056E03500410D8B41CD0010E076E1C
:1044BC0004D0D89003360436072A04AEFAD7D89025
:1044CC00053606360350015C04500258D8A005D0BE
:1044DC000350015E0450025A0580D8900432033216
:1044EC00072EEDD705C001F006C002F012002A0E0F
:1044FC0002EC26F00101EF510BEC26F00101EE511C
:10450C000BEC26F00101F3510BEC26F00101F251FA
:10451C000BEC26F02B0E02EC26F00101F1510BEC0A
:10452C0026F00101F0510BEC26F00101F5510BECDA
:10453C0026F00101F4510BEC26F012000001956FEE
:10454C0000019451D8B415D095C074FF000E756E4F
:10455C0093C073FF7F9E7F9C7F84F29E550E7E6E70
:10456C00AA0E7E6E7F82F28EB7ACFED7B79C000E81
:10457C00120095C074FF000E756E7F9E7F9C7F802D
:10458C0000F0735012004A6E25EE20F010EE3AF057
:10459C000F0EDBCFE3FFE806FCE2D00E186E040E24
:1045AC00196E4AC01AF0010EE6EC0CF0000E4B6EC0
:1045BC00050E4B6401D012003A0E186E000E196EE7
:1045CC00000E1A6E4B50020FE6EC0CF04B2AF0D793
:1045DC004A6E25EE30F010EE3AF00F0EDBCFE3FF13
:1045EC00E806FCE2F00E186E040E196E4AC01AF0C2
:1045FC00010EE6EC0CF0000E4B6E050E4B6401D078
:10460C0012003A0E186E000E196E000E1A6E4B50F8
:10461C00020FE6EC0CF04B2AF0D74A6E25EE40F078
:10462C0010EE3AF00F0EDBCFE3FFE806FCE2E00EF3
:10463C00186E040E196E4AC01AF0010EE6EC0CF05E
:10464C00000E4B6E050E4B6401D012003A0E186E24
:10465C00000E196E000E1A6E4B50020FE6EC0CF0A9
:10466C004B2AF0D74A6E25EE50F010EE3AF00F0EB2
:10467C00DBCFE3FFE806FCE2000E186E030E196EAA
:10468C004AC01AF0010EE6EC0CF0000E4B6E050E53
:10469C004B6401D012003A0E186E000E196E000E0B
:1046AC001A6E4B50020FE6EC0CF04B2AF0D74A6E08
:1046BC0024EE00F010EE3AF00F0EDBCFE3FFE8062D
:1046CC00FCE2100E186E030E196E4AC01AF0010EA1
:1046DC00E6EC0CF0000E4B6E050E4B6401D0120094
:1046EC003A0E186E000E196E000E1A6E4B50020F19
:1046FC00E6EC0CF04B2AF0D724EE40F010EE3AF03A
:10470C000F0EDBCFE3FFE806FCE2200E186E030E63
:10471C00196E000E1A6E010EE6EC0CF0000E4A6ECD
:10472C00050E4A6401D012003A0E186E000E196E76
:10473C00000E1A6E4A50020FE6EC0CF04A2AF0D723
:10474C0024EE50F010EE3AF00F0EDBCFE3FFE8064C
:10475C00FCE2200E186E030E196E000E1A6E010E7E
:10476C00E6EC0CF0000E4A6E050E4A6401D0120005
:10477C003A0E186E000E196E000E1A6E4A50020F89
:10478C00E6EC0CF04A2AF0D724EE60F010EE3AF08A
:10479C000F0EDBCFE3FFE806FCE2300E186E030EC3
:1047AC00196E000E1A6E010EE6EC0CF0000E4A6E3D
:1047BC00050E4A6401D012003A0E186E000E196EE6
:1047CC00000E1A6E4A50020FE6EC0CF04A2AF0D793
:1047DC0024EE80F010EE3AF00F0EDBCFE3FFE8068C
:1047EC00FCE2400E186E030E196E000E1A6E010ECE
:1047FC00E6EC0CF0000E4A6E050E4A6401D0120075
:10480C003A0E186E000E196E000E1A6E4A50020FF8
:10481C00E6EC0CF04A2AF0D70101F051F111D8B4B2
:10482C0018D0010EF26F04D0D890F037F137F22B7C
:10483C00F1AFFAD7F051EE5DF151EF59D8A004D099
:10484C00F051EE5FF151EF5BD890F133F033F22F72
:10485C00F1D7EEC1EEF1EFC1EFF11200036E025091
:10486C00D8B414D003C074FF000E756E01C073FF72
:10487C007F9E7F9C7F84F29E550E7E6EAA0E7E6E6E
:10488C007F82F28EB7ACFED7B79C120003C074FFC8
:10489C00000E756E7F9E7F9C7F8000F0735012001F
:1048AC0095C097F0010E0001986F000E996F972B31
:1048BC0003D0D89098379937972FFBD798C095F09D
:1048CC0099C096F0000195519315976F96519415D8
:1048DC00986F97519811D8B402D0010E1200000EA7
:1048EC0012000A500B10D8B418D0010E0C6E04D064
:1048FC00D8900A360B360C2A0BAEFAD70A50085C45
:10490C000B500958D8A004D00A50085E0B50095A15
:10491C00D8900B320A320C2EF1D708C008F009C01F
:10492C0009F0120003C005F0010E066E000E076EB2
:10493C00052A03D0D89006360736052EFBD706C0BD
:10494C0003F007C004F003500114056E0450021468
:10495C00066E05500610D8B402D0010E1200000EDF
:10496C0012002A0E12EC26F0045019EC26F003501B
:10497C0019EC26F0085019EC26F0075019EC26F02B
:10498C002B0E12EC26F0065019EC26F0055019EC03
:10499C0026F00A5019EC26F0095019EC26F01200FA
:1049AC00026E000E046E0150D8B415D0010E036EC9
:1049BC0003D0D8900136032A01AEFBD7D890043629
:1049CC000150025CD8A003D00150025E0480D89044
:1049DC000132032EF3D70450120093C097F094C009
:1049EC0098F005D00001974B982B954B962B95C0C2
:1049FC00F6FF96C0F7FF97C0D9FF98C0DAFF080002
:104A0C00F5CFDFFFDF50D8B41200ECD701C005F0B2
:104A1C0002C006F004D0054A062A034A042A03C041
:104A2C00F6FF04C0F7FF05C0D9FF06C0DAFF080087
:104A3C00F5CFDFFFDF50D8B41200EDD70001946F33
:104A4C0094C074FF000E756E93C073FF7F9E7F9CA5
:104A5C007F84F29E550E7E6EAA0E7E6E7F82F28E43
:104A6C00B7ACFED7B79C12000001956F000E000189
:104A7C00966F9305966F9639E842F80B966F96C031
:104A8C00CAFF9551CA2694C0CBFF9D829E92CA84C0
:104A9C001200026E02C074FF000E756E01C073FF2F
:104AAC007F9E7F9C7F84F29E550E7E6EAA0E7E6E3C
:104ABC007F82F28EB7ACFED7B79C120000019351E7
:104ACC009503F3CF97F0F4CF98F093519603F350EE
:104ADC00982794519503F350982797C093F098C05A
:104AEC0094F0120001500302F3CF05F0F4CF06F05E
:104AFC0001500402F350062602500302F35006261E
:104B0C0005C001F006C002F012000001956F000E06
:104B1C000001946F3A0E956105D02F0E956502D069
:104B2C00010E946F94C093F0933112000001936FB7
:104B3C000001BB51D8B405D0A4A8FED793C079FF0F
:104B4C0012009EA8FED793C0ADFF1200016E0001AB
:104B5C00BB51D8B405D0A4A8FED701C079FF120070
:104B6C009EA8FED701C0ADFF1200036E000E026EB0
:104B7C003A0E036005D02F0E036402D0010E026EB4
:104B8C0002C001F0013012000001936F93C074FF5A
:104B9C00000E756E7F9E7F9C7F8000F0735012001C
:104BAC0001010101140120202020202020202020A0
:074BBC002020202020000151
:104BC400016E01C074FF000E756E7F9E7F9C7F8016
:104BD40000F07350120082A682B404D082B202D0D4
:104BE40082A002D0010E1200000E1200929C949832
:104BF400949A928E9588958A8B988B9A899C1200A8
:104C04000001946F8994000194510BEC26F089847F
:104C140012000001936F93C08AFF8996898612005F
:104C2400026E8994025019EC26F089841200016EF8
:104C340001C08AFF8996898612008C868C848C82B6
:104C44008C8012002C0E02EC26F012002C0E12ECBA
:054C540026F012000132
:10FC5A0000E007F00F08100C300C300C300C300CA0
:10FC6A00300C300C300C300C300C300C300C300CAA
:10FC7A00300C300C300C300810F00FE00780078091
:10FC8A00078001800180018001800180018001805C
:10FC9A000180018001800180018001800180018052
:10FCAA000180018001F81FF81FE007F00F08100C0F
:10FCBA00000600060006000C001C0038007000E078
:10FCCA0000C00180030007000E001C00180030006D
:10FCDA0030FE3FFE3FF01FF83F1C600C000C000C8A
:10FCEA00000C000C000C001800F007F00718000CBC
:10FCFA00000C000C000C000C000C001C60F83FF01B
:10FD0A001F00000C001C003C006C00CC008C010C95
:10FD1A00030C060C0C0C180C30FE3FFE3F0C000CBA
:10FD2A00000C000C000C000C000C000C00F87FF812
:10FD3A007F0060006000600060006000600060009A
:10FD4A0060F07FF87F0C000C000C000C000C000C1B
:10FD5A00000C000C00F87FF07FF00FF01F0030005D
:10FD6A0060006000600060006000600060F06FF892
:10FD7A007F0C700C600C600C600C600C600C600CEA
:10FD8A0060F83FF01FFC3FFC3F0C000C0018001805
:10FD9A00003000300060006000C000C000800180B8
:10FDAA00010003000300060006000C000C00180006
:10FDBA0018E007F00F08100C300C300C300C300C27
:10FDCA00300C301818F00FF00F18180C300C300CDB
:10FDDA00300C300C300C300810F00FE007F807FC3C
:10FDEA001F0C180630063006300630063006300E74
:10FDFA0018FE1FF6070600060006000600060006A3
:10FE0A00000C001800F00FE00F00000000000000D6
:10FE1A0000000000000000000000000000000000D8
:10FE2A0000000000000000000000000000000000C8
:10FE3A000000000000007EA19189857E00000082FA
:10FE4A00FF8000000000C2A19189860000000081A5
:10FE5A0081899563000000181412FF1000008F8931
:10FE6A008989897000007E8989898970000001C1A9
:10FE7A0031090503000076898989760000000E9110
:10FE8A0091917E0000000000CCCC000000000048E8
:10FE9A00484848000000FC121112FC000000FF89CB
:10FEAA008989760000007E81818181000000FF81BE
:10FEBA008181817E0000FF89898981000000FF0914
:10FECA000909010000007E819191F0000000FF10F5
:10FEDA001010FF0000000081FF8100000000418136
:10FEEA007F0100000000FF18244280000000FF800C
:10FEFA008080800000FF0204080402FF0000FF0661
:10FF0A00081060FF00007E818181817E0000FF1160
:10FF1A0011110E0000007E81A1C17E000000FF3198
:10FF2A0031518E0000008689898971000001010122
:10FF3A00FF01010100007F808080807F00003F4038
:10FF4A008080403F001E60C03030C0601E00844880
:10FF5A003030488400010204F80402010000C1A103
:10FF6A009189858300000000000000000000000065
:10FF7A00C0C00000000000000000000000000000F7
:10FF8A000000000000000000000000000000000067
:10FF9A00000000000001000A006400E803102719AD
:10FFAA00544152453A202020202020202020202081
:10FFBA0000434425640A00434625640A0025303577
:10FFCA00640A004245300A004245310A004225646B
:10FFDA000A00435A0A00460A00520A00570A004910
:10FFEA00310049320049330043450043500043522F
:05FFFA0000435400006B
:020000040020DA
:08000000FFFFFFFFFFFFFFFF00
:020000040030CA
:0E00000015187F7CFF8991FF0FC00FE00F40A5
:00000001FF
